:020000040800F2
:10000000A006002049250008690500086B050008C6
:100010006D0500086F05000871050008000000006C
:100020000000000000000000000000007305000850
:100030007505000800000000770500087905000834
:100040006325000863250008632500086325000870
:100050006325000863250008632500086325000860
:100060006325000863250008632500086325000850
:100070006325000863250008632500086325000840
:100080006325000863250008632500086325000830
:100090006325000863250008632500086325000820
:1000A0006325000863250008632500086325000810
:1000B0007D050008C90500086325000863250008C0
:1000C00063250008632500086325000863250008F0
:1000D00063250008632500086325000863250008E0
:1000E0006325000863250008632500080000000060
:1000F0000000000000000000000000000000000000
:1001000000000000000000006325000863250008CF
:10011000632500086325000863250008632500089F
:10012000632500086325000863250008632500088F
:10013000632500086325000863250008632500087F
:10014000632500086325000863250008632500086F
:1001500000F002F800F03CF80AA090E8000C82449D
:100160008344AAF10107DA4501D100F031F8AFF27A
:10017000090EBAE80F0013F0010F18BFFB1A43F085
:100180000103184798240000B8240000103A24BF47
:1001900078C878C1FAD8520724BF30C830C144BFEC
:1001A00004680C607047000000230024002500262E
:1001B000103A28BF78C1FBD8520728BF30C148BFCA
:1001C0000B6070471FB502F01CFA1FBD10B510BDC3
:1001D00002F0DDF91146FFF7F5FF00F04AF802F0F2
:1001E000FBF903B4FFF7F2FF03BC02F003FA0000CF
:1001F00070B500F066F900F019F900F0F9F900F0B7
:100200003DFA00F05FFA00F0ABFA59484FF47A710A
:10021000584D0068B0FBF1F1B1F1807F04D320218B
:10022000284601F006F8FEE721F07F404FF0E02479
:10023000401E606166170F21304600F08EF80020E6
:10024000A061072020610021304600F086F80421DB
:10025000284600F0ECFF0821284600F0E8FF1021B6
:10026000284600F0E4FF2846BDE87040202100F059
:10027000DEBF08B500200090FFF7BAFF3D4C4FF4F9
:100280002F754FF4FA760DE02021204600F0D1FFC3
:10029000284600F075F82021204600F0C8FF3046BF
:1002A00000F06EF800F0E6FA0028EDD104212046B7
:1002B00000F0BDFF0821204600F0B9FF10212046C4
:1002C00000F0B5FF2021204600F0B1FF00F069FBEF
:1002D00000F066F88DF8000030B100F08DFB684644
:1002E00000F017FB00F05DFB684600F041FB08BB27
:1002F0009DF80000012806D002280BD0032810D05A
:10030000042817D10FE00421204600F092FF00F0EE
:100310000FFC0CE00821204600F08BFF00F013FCDE
:1003200005E0102100E02021204600F082FF64203B
:1003300000F026F800F012FC0421204600F077FFC0
:100340000821204600F073FF1021204600F06FFFC7
:100350002021204600F06BFFBAE70907090E0028AC
:1003600003DA00F00F00044A00E0044A81547047A9
:100370002C0000200018014014ED00E000E400E033
:100380000649086008680028FCD1704703480168E6
:10039000002902D00168491E01607047000000205A
:1003A00070B5214C4021204600F02DFF88B18021FE
:1003B000204600F028FFB0B1A5152946204600F0E0
:1003C00022FFD0B165152946204600F01CFFF0B190
:1003D00025E06420FFF7D4FF4021204600F013FF02
:1003E000E8B9012070BD6420FFF7CAFF80212046D4
:1003F00000F009FF98B9022070BD6420FFF7C0FF2C
:100400002946204600F0FFFE48B9032070BD642055
:10041000FFF7B6FF2946204600F0F5FE08B10020A0
:1004200070BD042070BD000000100140F8B53C20F4
:10043000ADF800000324494E8DF8024010258DF8D8
:1004400003506946304600F088FE0121102001F07B
:10045000B3F84FF47070ADF800008DF8024004203E
:100460003F4F8DF803006946384600F076FE0121C3
:10047000402001F0A1F84FF4AA40ADF800008DF83B
:1004800002408DF803506946304600F066FE0121B7
:10049000C80301F09AF80121112001F08DF8012123
:1004A000304800F0E5FE4FF4E050ADF800008DF864
:1004B000024018208DF803006946384600F04DFED2
:1004C000F8BD10B500F026FF4FF48034204600F050
:1004D00040FF00F06BFF012835D1102000F0BAFB7F
:1004E000022000F0A7FB002000F0B9FF002000F080
:1004F000C4FF002000F0BAFF402000F089FF4FF455
:10050000C06000F08CFF012000F090FF3B2000F065
:1005100038FF0028FAD00421204600F070FF4FF485
:10052000E011204600F060FF012000F065FF392057
:1005300000F027FF0028FAD0022000F084FF00F02E
:1005400089FF0828FBD10121402001F035F8012165
:10055000BDE81040032001F038B800000018014049
:1005600000100140001120007047FEE7FEE7FEE7A3
:10057000FEE7704770477047FFF708BF70B502216C
:100580004D07284601F0A3FD002814D0022128467B
:1005900001F0A9FD00F06AFA284601F081FD124C35
:1005A0002080A16841B1A188084481B2284601F0A9
:1005B00066FD0020A06070BD6188084481B22846B5
:1005C00001F05DFD0120F5E710B5084C0121204642
:1005D00001F07DFD002805D02046BDE81040012136
:1005E00001F081BD10BD00000400002000040040A7
:1005F000F0B587B041F2883041F61F45ADF80400F0
:10060000ADF800500024C606ADF8024069463046F9
:1006100001F0CCF8294F01221146384601F073FB56
:100620000121384601F05AFB4FF6FF70ADF8040087
:10063000ADF80050ADF802406946304601F0B6F81A
:10064000ADF80C400120ADF80E001D48ADF8144087
:100650000088ADF8120003A9304601F0E0F800214F
:10066000304601F00CFC01220221304601F04BFB28
:100670000121304601F032FB07B0F0BD38B54FF430
:10068000E06000F07FFA1C208DF8000000248DF857
:1006900001408DF8024001258DF80350684600F0B6
:1006A00076FA1D208DF800008DF801408DF802507B
:1006B0008DF80350684600F06AFA38BD0004004027
:1006C0001000002010B586B00020ADF800004FF4F7
:1006D0008271ADF80210ADF808004FF40071ADF86A
:1006E0000A101021ADF80C10ADF80400ADF80600AA
:1006F000ADF80E000720194CADF8100069462046F1
:1007000001F018FD0121204601F0AEFD06B010BD3C
:1007100070B506460024114D03E0641CE4B2C82CF9
:100720000FD80221284601F00BFE0028F5D03146F3
:10073000284601F0C1FD002405E0641CE4B2C82C89
:1007400001D9002070BD0121284601F0F9FD0028E3
:10075000F3D0284601F0B2FDC0B270BD003C0040AD
:100760002DE9F8430121202000F026FF4FF48046B8
:10077000ADF800601027DFF8E4828DF803700324E1
:100780008DF802406946404600F0E7FC0121202038
:1007900000F012FF7510ADF800508DF803708DF861
:1007A00002406946404600F0D8FC3146404600F021
:1007B0003EFD2946404600F03AFDAF00ADF800701E
:1007C00048208DF803008DF802406946404600F04D
:1007D000C4FC3946404600F02AFD3146404600F050
:1007E00028FD2946404600F022FDBDE8F8832DE9AA
:1007F000F047DFF8689204460D464FF4005816465D
:100800004146484600F015FD2046FFF781FF0746A8
:10081000002405E0FF20FFF77BFF2855641CE4B2AD
:10082000B442F7D34146484600F001FD3846BDE8E2
:10083000F0872DE9F047DFF8249204460D464FF487
:10084000005816464146484600F0F3FC2046FFF7A4
:100850005FFF0746002405E015F8010BFFF758FF7E
:10086000641CE4B2B442F7D34146484600F0DFFCD2
:100870003846DCE71FB57AA00522D0E90010CDE9A3
:10088000001069463020FFF7D4FF052202A910208E
:10089000FFF7ADFF002002A90A5CA52A03D1401C86
:1008A000C0B20528F8D3052802D0012004B010BD3D
:1008B0000020FBE72DE9F041684D07460E464FF456
:1008C00000542146284600F0B4FC3846FFF720FFCC
:1008D00007463046FFF71CFF2146284600F0A7FCDC
:1008E0003846BDE8F08170B55C4D06464FF40054C3
:1008F0002146284600F09DFC3046FFF709FFFF2007
:10090000FFF706FF06462146284600F090FC3046D9
:1009100070BD70B5514C06464FF4804529462046BF
:1009200000F087FC01223146A020FFF782FF294614
:10093000204600F07CFC6D002946204600F063FC58
:100940000028F9D10720FFF7CEFF044601462720F3
:10095000FFF7B0FFE00605D5FF21E120FFF7AAFF72
:10096000102070BDA00601D5202070BDFF2070BDF5
:1009700070B505460720FFF7B6FF0446014627205D
:10098000FFF798FF60060AD5012229466120FFF78C
:100990002EFFFF21E220FFF78DFF002070BD012018
:1009A00070BD70B52D4D4FF480442146284600F0AF
:1009B00040FC05222C492A20FFF73BFF0121212082
:1009C000FFF778FF01212220FFF774FF282125205F
:1009D000FFF770FF01213120FFF76CFF0F21262068
:1009E000FFF768FF0F212020FFF764FF214628460C
:1009F000BDE8704000F01BBC70B5184D4FF480444A
:100A00002146284600F015FC17490522491F3020D1
:100A1000FFF70FFF052214492A20FFF70AFF0121E3
:100A20002120FFF747FF01212220FFF743FF1A2172
:100A30002420FFF73FFF28212520FFF73BFF0F2150
:100A40002620FFF737FF0E212020FFF733FF214636
:100A50002846BDE8704000F0EABB000000140140E9
:100A6000A5A5A5A5A5000000152600082DE9F041C3
:100A7000404D28884FF48077BE003F4C012805D0B8
:100A8000288802280ED02888C8B120E039462046A0
:100A900000F0C3FBC0F10100C2B23946204600F0AD
:100AA000CAFB10E03146204600F0B7FBC0F1010060
:100AB000C2B23146204600F0BEFB394604E039465A
:100AC000204600F0B6FB3146204600F0B2FB6888B5
:100AD0004FF48057BE0001280FD06888022818D034
:100AE0006888002822D13946204600F0A2FB314612
:100AF0002046BDE8F04100F09CBB3946204600F09E
:100B00008CFBC0F10100C2B23946204600F093FBD5
:100B1000EDE73146204600F080FBC0F10100C2B293
:100B20003146204600F087FB3946E1E7BDE8F08119
:100B300012492820088012493C2008800D480121D4
:100B40000180418070470D49282008800C493C20D5
:100B5000088008480221018041807047074902202F
:100B600008800749622008800248002101804180F6
:100B7000704700001200002000180140060000200D
:100B8000080000202749084327490860704770B5CE
:100B90000F24C278017801254FF0E026DAB1224A0D
:100BA000126802F4E062C2F5E062120AC2F10403C4
:100BB000D44042789A408378234013431A011B4B58
:100BC000CA54007800F01F018D40400906EB8000F8
:100BD000C0F8005170BD01F01F008540480906EBC8
:100BE0008000C0F8805170BD114A114001430E4889
:100BF000001F016070470C4A121D0029116801D0C6
:100C0000014300E08143116070474FF0E021042868
:100C1000086903D020F004000861704740F0040028
:100C2000FAE700000000FA050CED00E000E400E047
:100C300080FFFF1FFB4A116801F03801014311607A
:100C40007047F8490A6822F008020A600A680243FD
:100C50000A607047F3490A6822F010020A600A68C5
:100C600002430A607047EF48EF494160EF49416035
:100C70007047EC48EC494160EC4941607047E948F5
:100C8000016941F0800101617047E648016941F066
:100C9000800101617047E3490420CA68D20701D08E
:100CA00001207047CA68520701D502207047C96801
:100CB000C906FBD50320704700B50346FFF7EBFFDD
:100CC00002E0FFF7E8FF5B1E012803D0002B00D1F4
:100CD000052000BD002BF4D1FAE770B505464FF4AE
:100CE00030263046FFF7E8FF042811D1CD4C2069AB
:100CF00040F0020020616561206940F04000206101
:100D00003046FFF7D9FF216941F6FD72114021619C
:100D100070BD30B54FF430252846FFF7CDFF0428CD
:100D200010D1C04C206940F004002061206940F0DF
:100D3000400020612846FFF7BFFF216941F6FB72A2
:100D40001140216130BD00B50346FFF7A4FF02E06A
:100D5000FFF7A1FF5B1E012803D0002B00D1052067
:100D600000BD002BF4D1FAE730B54FF4302528460A
:100D7000FFF7E9FF042810D1AA4C206940F00400D5
:100D80002061206940F0400020612846FFF7DBFF2A
:100D9000216941F6FB721140216130BDA14900205B
:100DA000C969890700D50120704770B5A525FFF7EF
:100DB000F5FF00B100254FF430263046FFF77CFFE9
:100DC000042827D1974C9848A0609848A0602069D3
:100DD00040F020002061206940F040002061304652
:100DE000FFF76AFF41F6EF7604280ED1206941F63D
:100DF000DF7108402061206940F0100020618C48BC
:100E000005804FF40050FFF757FF052802D02169F5
:100E10003140216170BDF0B505464FF4005C0E46CF
:100E20006046FFF749FF042814D17E4C206940F04A
:100E3000010020612E806046FFF73EFF41F6FE77FD
:100E4000042804D1300C68806046FFF735FF216923
:100E500039402161F0BDF0B505464FF400570E460C
:100E60003846FFF729FF04280CD16E4C206940F06A
:100E7000010020612E803846FFF71EFF2169BA1E4F
:100E800011402161F0BDF0B505464FF400570E4604
:100E90003846FFF711FF042813D1624C6248A06066
:100EA0006248A060206940F0100020612E80384622
:100EB000FFF702FF052804D0216941F6EF721140C7
:100EC0002161F0BD2DE9F041C043C4B2C0F3072554
:100ED000C0F30746070E4FF400584046FFF7ECFEFC
:100EE00004283CD1DFF83CC14F49CCF808104F49E9
:100EF000CCF80810DCF8101041F01001CCF81010FC
:100F0000FF2C07D04A48083004804046FFF7D4FE43
:100F100004281BD1FF2D07D045480A3005804046E4
:100F2000FFF7CAFE042811D1FF2E07D040480C302D
:100F300006804046FFF7C0FE042807D1FF2F07D0E8
:100F40003B480E3007804046FFF7B6FE052806D026
:100F5000DCF8101041F6EF721140CCF81010BDE82B
:100F6000F08170B506464FF430252846FFF7A4FE01
:100F7000042818D12B4C2C48A0602C48A060206974
:100F800040F020002061206940F0400020612846A8
:100F9000FFF792FE41F6DF71042805D0052802D044
:100FA00022690A40226170BD2069084020612069E1
:100FB00040F0100020611E480EB1002100E0A52184
:100FC00001802846FFF778FE0528ECD0216941F61C
:100FD000EF721140216170BDF0B5124C0646124807
:100FE0000D461746A0601148A0604FF4005C6046B3
:100FF000FFF762FE042814D1206940F01000206140
:101000003D430B493543891C45F0F8000880604694
:10101000FFF752FE052804D0216941F6EF72114016
:101020002161F0BD0020024023016745AB89EFCD6F
:1010300000F8FF1F1C48C069800870471A48006A02
:101040007047194900200968890600D501207047BA
:10105000154A0029116901D0014300E08143116163
:10106000704701460020104A012903D0D2680A4285
:1010700003D17047D169C907FBD0012070470A49E5
:10108000C860704708490420CA68D20701D001200F
:101090007047CA68520701D502207047C968C9065F
:1010A000FBD5032070470000002002408F4910B597
:1010B000884206D10121042000F099FA0021042081
:1010C0003BE08B49884206D10121082000F08FFACD
:1010D0000021082031E08749884206D101211020F3
:1010E00000F085FA0021102027E08349884206D1CC
:1010F0000121202000F07BFA002120201DE07F4903
:10110000884206D10121402000F071FA00214020E0
:1011100013E07B49884206D10121802000F067FA64
:101120000021802009E0774988420AD184150121F5
:10113000204600F05CFA00212046BDE8104000F097
:1011400056BA10BD10B50121084600F050FA002132
:10115000BDE81040012000F04ABAF0B5CC7800227A
:1011600004F00F03E40601D58C7823430C884FF07C
:101170000F0C14F0FF0F4FF0010E1AD005680E8807
:101180000EFA02F42640A6420FD196000CFA06F79A
:10119000BD4303FA06F63543CE78282E02D0482EFA
:1011A00002D002E0446100E00461521C082AE6D348
:1011B00005600A88FF2A1DD94568002202F1080649
:1011C0000EFA06F40E882640A6420FD196000CFABD
:1011D00006F725EA070703FA06F5CE783D43282EE1
:1011E00000D14461CE78482E00D10461521C082AF7
:1011F000E4D34560F0BD4FF6FF710180022181709C
:101200000421C17070470246002092680A4200D053
:1012100001207047806880B2704702460020D26883
:101220000A4200D001207047C06880B27047016157
:101230007047416170470AB1016170474161704771
:10124000C160704741F4803282618161826181694D
:10125000806970472C4B10B51A684FF68074224095
:1012600042EA00100843186010BD2849C861704761
:10127000F0B5254C002801DAE36900E06368420D0F
:10128000120185B2C0F301579540C0F30346032F06
:1012900005D0C2020AD50322B240934307E023F0EF
:1012A0007062636823F07063636002E0AB4343F0F5
:1012B000706201B12A43002801DAE261F0BD626088
:1012C000F0BD10B58A0721F003040F49120F214425
:1012D0000F238C6893409C438C608B689040034341
:1012E0008B6010BD0A49086070470000000801408B
:1012F000000C0140001001400014014000180140A2
:10130000001C01400020014000000140000020427C
:10131000DC002042CC48016841F0010101604168D5
:10132000CA4A114041600168C94A11400160016820
:1013300021F480210160416821F4FE0141600168CF
:1013400021F0A05101604FF47F0181600021C16252
:101350007047BD490A6822F480320A600A6822F4A4
:1013600080220A60B0F5803F07D0B0F5802F03D10E
:10137000086840F4A02008607047086840F4803096
:10138000F9E7034600205909AF4A01290AD002298A
:101390000AD0516A03F01F02012393400B4200D090
:1013A000012070471168F5E7116AF3E730B50024B2
:1013B0004FF4A0653120FFF7E4FF641CAC4201D07C
:1013C0000028F7D03120FFF7DCFF002800D00120F3
:1013D00030BD9D4A116821F0F80141EAC00010605B
:1013E00070479C4908607047974B5A68084322F43D
:1013F0007412104358607047964908667047924BC4
:1014000010B5DA6A944C084322401043D86210BDEC
:101410008D4AD16A21F0F0010143D16270478A4AB6
:10142000D16A21F470610143D162704789498866AD
:101430007047854AD16A21F470410143D1627047F7
:10144000844908677047804A516821F003010143CD
:10145000516070477C48406800F00C0070477A4A41
:10146000516821F0F001014351607047764A51689C
:1014700021F4E061014351607047734A516821F4DF
:10148000605141EAC000506070476F4A0029517AAC
:1014900001D0014300E08143517270476F490860F9
:1014A0007047694A516821F44041014351607047D7
:1014B0006B49086070476A49091D086070476949AF
:1014C00000220A7001F82029012802D0042802D144
:1014D000052081F8200070476349086070475A4929
:1014E0000A6A02430A6270475F49443908607047DC
:1014F00070B5554B59685D4A11F00C0104D05C4C35
:10150000042903D0082903D0026029E0046027E001
:1015100059685A6801F47011890C02F480320D295F
:1015200001D0891C00E00621BAB1DA6A12F4803FCA
:10153000DA6A02F00F0202F101020AD0DD6ADE6A05
:10154000C5F303156D1CB4FBF5F4C6F30326B61CF6
:101550007443B4FBF2F24A43D6E7464A5143016072
:101560005968454A01F0F0010909545C0168E140FD
:1015700041605C6804F4E064240A145D21FA04F418
:1015800084605C6804F46054E40A125DD140C16078
:101590005A68394B02F44042920B1B1F9A5CB1FB14
:1015A000F2F1016170BD284A0029516901D001435F
:1015B00000E0814351617047234A0029916901D0BD
:1015C000014300E08143916170471F4A0029D169BE
:1015D00001D0014300E08143D16170471A4A0029DC
:1015E000916A01D0014300E0814391627047164A3D
:1015F0000029D16801D0014300E08143D1607047E8
:10160000114A0029116901D0014300E081431161B1
:10161000704715494039086070470E49C8647047E3
:101620000949C87170470848416A41F080714162B8
:101630007047054A0146002092680A4200D0012006
:101640007047014988727047001002400000FFF0A7
:10165000FFFFF6FE00004242F0FFFEFFD8004242CC
:10166000C4054242201002408004424200127A0027
:1016700040787D0100093D001A000020F64910B5B0
:10168000884202D10121C41486E0B0F1804F09D014
:10169000F24988420DD101210220FFF7B1FF00215C
:1016A000022064E001210846FFF7AAFF0021012083
:1016B0005DE0EB49884206D101210420FFF7A0FF3D
:1016C0000021042053E0E749884206D10121082087
:1016D000FFF796FF0021082049E0E349884206D140
:1016E00001211020FFF78CFF002110203FE0DF498F
:1016F000884206D101212020FFF782FF002120200F
:1017000035E0DB49884202D10121441444E0D94943
:10171000884202D10121CC043EE0D749884202D15F
:1017200001210C0538E0D549884202D101214C0540
:1017300032E0D349884206D101214020FFF760FF03
:101740000021402013E0CF49884206D101218020AA
:10175000FFF756FF0021802009E0CB4988420AD1DB
:10176000841501212046FFF74BFF00212046BDE8EC
:101770001040FFF745BFC549884202D101210C0442
:101780000AE0C349884202D101214C0404E0C14966
:1017900088420AD101218C042046FFF728FF204609
:1017A000BDE810400021FFF722BF10BD30B5028810
:1017B000A94CAF4DA0420DD0A8420BD0B0F1804F44
:1017C00008D0A64B984205D0A54B984202D0A54B15
:1017D000984203D122F070034A881A43A24B9842E0
:1017E00006D0A24B984203D022F44073CA881A4311
:1017F00002808A8882850A880285A0420AD0A8428F
:1018000008D0A24A904205D0A14A904202D0A14AF3
:10181000904201D1097A01860121818230BD30B523
:10182000028C22F001020284028C8388048B22F055
:10183000020224F073050C882C430D8915434A8855
:101840002A43854DA8420BD0894DA84208D08F4D20
:10185000A84205D08E4DA84202D08E4DA8420DD18F
:1018600022F008054A8923F440732A4322F0040534
:101870008A882A438D891D43CB892B438380048327
:10188000C9888186028430BD30B5028C22F01002F6
:101890000284028C8388048B22F0200224F4E64523
:1018A0000C88240645EA14440D892D0542EA1545A5
:1018B0004A88120545EA1242674DA84202D06C4D93
:1018C000A84215D122F080054A8923F4406312050D
:1018D00045EA124222F040058A88120545EA124282
:1018E0008D89AD0443EA1545CB899B0445EA134332
:1018F00083800483C9880187028430BD30B5028C9F
:1019000022F480720284028C8388848B22F4007219
:1019100024F073050C882C430D892D0642EA1545E9
:101920004A88120645EA12424B4DA84202D0504D59
:10193000A84215D122F400654A8923F440531206C7
:1019400045EA124222F480658A88120645EA12426C
:101950008D892D0543EA1545CB891B0545EA1343BF
:1019600083808483C9888187028430BD30B5028C2E
:1019700022F480520284048C8288838B23F4E6450F
:101980000B881B0645EA134324F400550C892407F1
:1019900045EA14444D882D0744EA15452E4CA042D3
:1019A00002D0334CA04205D122F480448A899205AA
:1019B00044EA124282808383C988A0F840100584DB
:1019C00030BD828B22F440628283828B42EA012204
:1019D00082837047828B22F00C028283828B0A43BF
:1019E00082837047028B22F440620283028B42EAB8
:1019F00001220283704770B5048C24F01004048423
:101A0000068B048C26F473461B0746EA1343120622
:101A100043EA12420D05104B2D0C98420ED0144B88
:101A200098420BD0B0F1804F08D00C4B984205D0B3
:101A30000B4B984202D00B4B984205D124F0200169
:101A4000294341F0100104E024F0A0030B4343F0CC
:101A500010010283018470BD002C0140000400408D
:101A600000080040000C004000100040001400403E
:101A700000340140004C014000500140005401403E
:101A800000180040001C00400020004000400140C1
:101A90000044014000480140028B22F00C02028306
:101AA000028B0A430283704730B5048C24F0010492
:101AB0000484058B048C1B0542EA134325F0F305CF
:101AC000F84A2B4390420ED0F74A90420BD0B0F127
:101AD000804F08D0F54A904205D0F54A904202D096
:101AE000F44A904202D124F0020201E024F00A02FA
:101AF0000A4342F001010383018430BD2DE9F05F08
:101B00000D4604460E88E748DFF89CC3DFF89CA327
:101B1000DFF89CB34988AA882B894FF0804E4EB3DA
:101B2000042E2FD0082E268C34D026F480562684FE
:101B3000B4F81C90268C0F074FEA1748120629F4B8
:101B400073471B0747EA124242EA13432246844284
:101B50000BD01046624508D0744506D0504504D0DD
:101B60005C4502D0D348844243D126F4005040EA79
:101B7000080041E02046FFF797FFE9882046BDE8CE
:101B8000F05F89E72046FFF736FFE9882046BDE889
:101B9000F05F27E726F480762684A78B268C1B052A
:101BA00042EA134327F0F3074FEA01683B434FEA49
:101BB0001848224684420BD01046624508D074452E
:101BC00006D0504504D05C4502D0BA48844204D1C6
:101BD00026F4007040EA080002E026F42060084382
:101BE00040F48070A3832084E9882046BDE8F05F3C
:101BF000F0E626F40240084340F48050A38320849A
:101C0000E9882046BDE8F05FDBE62DE9F0410C46AF
:101C1000002549880746012601B90225A288012A24
:101C200000D10226208823890028384610D0FFF7EB
:101C3000E2FEE1883846FFF7D5FE23893246294681
:101C40003846FFF731FFE1883846BDE8F04123E729
:101C5000FFF72AFFE1883846FFF71EFF2389324647
:101C600029463846FFF7C7FEE1883846BDE8F0410F
:101C7000B8E610B50A884B88CC881A438B88234372
:101C80001A430B891A434B8989891A430A43A0F8DE
:101C9000442010BD4FF6FF71818000210180C1807A
:101CA0004180017270470021018041808180C180A4
:101CB000018141818181C181704700210180418082
:101CC00001228280C1800181704700210180418012
:101CD0008180C18001814181818170470029018813
:101CE00002D041F0010101E021F0010101807047C3
:101CF000002930F8441F02D041F4004101E0C1F353
:101D00000E0101807047002A828901D00A4300E059
:101D10008A4382817047818270471143A0F848103E
:101D20007047002A828901D00A4300E08A438281F9
:101D30007047018921F0070101817047028922F073
:101D400070020A430281704700B50346FFF7F6FFB1
:101D5000188940F00700188100BD70B50D46114686
:101D60000446602D4FF001020AD0FFF79DFE294680
:101D70002046FFF7E3FF208940F00700208170BD77
:101D8000FFF739FEF3E710B5048942EA0323E4B212
:101D90000B432343038110BD10B50446FFF7F3FF47
:101DA000208940F07700208110BD10B50446FFF770
:101DB000EAFF208940F48040208110BD01858282A5
:101DC0007047028822F070020A430280704770B5A3
:101DD0000589048B068C25F007050D434FF6FC4161
:101DE0000C4040F201110C4326F0220642EA031196
:101DF000314305810483018470BD028B22F070029F
:101E00000A4302837047028B22F4E04242EA012136
:101E100001837047828B22F070020A4382837047ED
:101E2000828B22F4E04242EA01218183704700293B
:101E3000018802D041F0800101E021F080010180A1
:101E400070470029818802D041F0040101E021F0AF
:101E50000401818070470029818802D041F0080187
:101E600001E021F00801818070470029818802D0BB
:101E700041F0010101E021F0010181807047028BF6
:101E800022F008020A4302837047028B22F40062A8
:101E900042EA012101837047828B22F008020A4343
:101EA00082837047002C0140003401400004004050
:101EB00000080040000C0040828B22F4006242EADD
:101EC00001218183EDE7028B22F004020A430283A1
:101ED000E7E7028B22F4806242EA01210183E0E716
:101EE000828B22F004020A438283DAE7828B22F497
:101EF000806242EA01218183D3E7028B22F08002D3
:101F00000A430283CDE7028BC2F30E0242EA0121AB
:101F10000183C6E7828B22F080020A438283C0E7F6
:101F2000828BC2F30E0242EA01218183B9E7028C5F
:101F300022F002020A430284B3E7028C22F0080274
:101F40000A430284ADE7028C22F0200242EA01112A
:101F50000184A6E7028C22F0800242EA011101848A
:101F60009FE7028C22F4007242EA0121018498E783
:101F7000028C22F4006242EA0121018491E7028C82
:101F800022F4005242EA013101848AE710B50123AC
:101F9000048C8B409C430484038C8A401343038449
:101FA00010BD10B50423048C8B409C430484038C27
:101FB0008A401343038410BD30B50124058C00F121
:101FC00018038C40A543058479B108290DD0091F59
:101FD00088B203EB5000016821F4E0410160016820
:101FE0001206120C1143016030BD03EB5100016871
:101FF00021F0700101600168F4E70029018802D036
:1020000041F0020101E021F00201018049E70029CD
:10201000018802D041F0040101E021F004010180B7
:102020003FE70029818802D041F0800101E021F0E2
:102030008001818035E7028822F008020280028850
:102040000A4302802DE7828822F070028280828813
:102050000A43828025E7028922F007020281028971
:102060000A4302811DE7028922F08002028102896F
:102070000A43028115E7818413E7818511E7818690
:102080000FE701870DE781870BE7A0F8401008E70D
:10209000028822F44072028002880A43028000E72C
:1020A000808EFEE6008FFCE6808FFAE6B0F84000F6
:1020B000F7E6808CF5E6008DF3E602460020128AF2
:1020C0000A4200D00120ECE6C9430182E9E602465B
:1020D0000020138A92890B4202EA010202D0002AF0
:1020E00000D00120DDE6C9430182DAE6A74910B538
:1020F00088420AD1841401212046FFF778FA20464D
:10210000BDE810400021FFF772BAA149884202D110
:102110000121041404E09F4988420AD10121C4131B
:102120002046FFF76DFA2046BDE810400021FFF77A
:1021300067BA10BD30B502884C8802F441530A8852
:10214000CD8822438C882C4322430C8922434C891E
:1021500022438C892243CC8922431A430280828BFA
:1021600022F400628283098A018230BDF0B50546FF
:102170000C4602200021AA8B85B001264FF24003B5
:102180001A40AA832884AF8BA268022A3FD0A08875
:1021900000B102267E48854202D14FF4003001E0B2
:1021A0004FF480207C49CA6A024214D0C86AC0F346
:1021B0000330821F092A01D2801C02E00F2800D1BF
:1021C0001420C96A754AC1F30311491CB2FBF1F12D
:1021D0004143480003E06846FFF78AF90098E18828
:1021E000B1F5007F29D07101B0FBF1F000EB800068
:1021F000A1684000B0FBF1F0401D80B20A21B0FBA5
:10220000F1F000F00101401AC0F34F000902821EF4
:10221000FE2A01D302200021E288084302432A84D7
:1022200020886188A2890843A18811430843384364
:1022300040F40060A88305B0F0BD000AD6E7002195
:10224000018041808180C180018141818181C18182
:102250000721018270470021018041808180C18077
:1022600002228260818170470029018802D041F0FA
:10227000400101E021F04001018070470029818B7D
:1022800002D041F4806101E021F4806181837047D4
:10229000090901238B40002A828899B201D00A43A0
:1022A00000E08A4382807047002A828801D00A4376
:1022B00000E08A438280704781817047808970473F
:1022C000A1F57E420188FF3A02D041F4807101E01D
:1022D00021F48071018070470029818802D041F08B
:1022E000040101E021F0040181807047028822F49A
:1022F0000062028002880A4302807047018841F42C
:102300008051018070470029018802D041F40051BA
:1023100001E021F4005101807047012901D0008BB8
:102320007047808A7047008A7047B1F5804F0188F6
:1023300003D021F480410180704741F48041FAE7E5
:102340000246002012890A4200D001207047C9438A
:102350000181704710B501F00F03012404FA03F363
:102360000246002009098C4091889BB2A4B21289D0
:1023700021401A4202D0002900D0012010BD01F0F6
:102380000F0201219140C943018170470030014093
:1023900000380040003C00400010024040787D01C1
:1023A0005E4900200A6842F480320A604FF4A0635C
:1023B0000A6800F1010012F4003F01D19842F7D100
:1023C000086880033FD55648026842F01002026058
:1023D000026822F003020260026842F00202026018
:1023E0004868486048684860486840F480604860D1
:1023F000C86A4C4A1040C862C86A4B4A1043C86257
:10240000086840F08060086008680001FCD54868F2
:1024100020F47C104860486840F4E8104860086880
:1024200040F08070086008688001FCD5486820F0A2
:1024300003004860486840F0020048604868C0F304
:1024400081000228FAD17047344810B5016841F084
:10245000010101604168354A114041600168344A18
:1024600011400160016821F480210160416821F47C
:10247000FE014160016821F0A05101604FF47F012D
:1024800081600021C162FFF78BFF2A494FF0006095
:10249000086010BD70B5214B5868274A274910F0D5
:1024A0000C0004D0264C042803D0082803D00A606E
:1024B00029E00C6027E058685A6800F47010800C1E
:1024C00002F480320D2801D0801C00E00620BAB151
:1024D000DA6A12F4803FDA6A02F00F0202F10102B6
:1024E0000AD0DD6ADE6AC5F303156D1CB4FBF5F492
:1024F000C6F30326B61C7443B4FBF2F24243D6E79C
:10250000104A5043086058680C4AC0F30310121D6B
:10251000105C0A68C2400A6070BD000000100240F2
:102520000020024000F0FEFF440601000000FFF022
:10253000FFFFF6FE08ED00E000127A002C000020FC
:1025400040787D0100093D0009488047094800475F
:10255000FEE7FEE7FEE7FEE7FEE7FEE7FEE7FEE753
:10256000FEE7FEE704480549054A064B70470000B0
:102570004924000851010008A0000020A006002006
:10258000A0020020A00200207047704770477546E7
:1025900000F028F8AE4605006946534620F00700D3
:1025A000854618B020B5FFF7DDFFBDE820404FF0AD
:1025B00000064FF000074FF000084FF0000B21F02D
:1025C0000701AC46ACE8C009ACE8C009ACE8C009FA
:1025D000ACE8C0098D4670470446AFF30080204642
:1025E000FDF7FFFD0048704740000020004870479D
:1025F0004400002001491820ABBEFEE7260002007F
:10260000704710B5FFF7F2FF4FF00001016010BDF9
:102610003443101001344310100100003C26000820
:1026200000000020400000008C0100087C2600080B
:102630004000002060060000A80100080000000023
:10264000000028003C000000000000006E000000B8
:102650000000020406080000000001020304010259
:10266000030406070809000000A24A040000000055
:0C26700000000000010203040607080936
:040000050800254981
:00000001FF
