:020000040800F2
:1000000090060020E9170008450200084702000892
:100010004B0200084F0200085302000800000000D5
:10002000000000000000000000000000570200086F
:1000300059020008000000005B0200085D02000891
:100040000318000803180008031800080318000824
:100050000318000803180008031800080318000814
:100060000318000803180008031800080318000804
:1000700003180008031800080318000803180008F4
:1000800003180008031800085F020008031800089E
:1000900003180008031800080318000803180008D4
:1000A00003180008031800080318000803180008C4
:1000B00003180008031800080318000803180008B4
:1000C00003180008031800080318000803180008A4
:1000D0000318000803180008031800080318000894
:1000E0000318000803180008031800080318000884
:1000F0000318000803180008031800080318000874
:100100000318000803180008031800080318000863
:100110000318000803180008031800080318000853
:100120000318000803180008031800080318000843
:1001300000F002F800F03CF80AA090E8000C8244BD
:100140008344AAF10107DA4501D100F031F8AFF29A
:10015000090EBAE80F0013F0010F18BFFB1A43F0A5
:10016000010318474C1700006C170000103A24BF19
:1001700078C878C1FAD8520724BF30C830C144BF0C
:1001800004680C607047000000230024002500264E
:10019000103A28BF78C1FBD8520728BF30C148BFEA
:1001A0000B6070471FB501F07CFB1FBD10B510BD83
:1001B00001F03DFB1146FFF7F5FF00F015F801F0E7
:1001C0005BFB03B4FFF7F2FF03BC01F063FB00002D
:1001D00000BFA0F101010800FBD1704710B500F08D
:1001E00049F800F07DF810BDFFF7F8FF25E0202169
:1001F000124800F011FC1021104800F00DFC0821FD
:100200000E4800F009FC04210C4800F005FC0C48E5
:10021000FFF7DEFF2021094800F000FC102107480D
:1002200000F0FCFB0821054800F0F8FB042103481E
:1002300000F0F4FB0248FFF7CBFFD8E700180140BD
:10024000C0C62D00704700BFFEE700BFFEE700BF3D
:10025000FEE700BFFEE7704770477047704710B574
:10026000024800F0A3F90249088010BD00280140AF
:100270000000002010B500F089FC4FF4803000F041
:10028000A7FC00F0EAFC0446012C24D1002000F079
:100290002FFD002000F042FDA00200F034FD0220FE
:1002A00000F07EFE102000F092FE4FF4E0112004DA
:1002B00000F0FDFC012000F008FD00BF392000F037
:1002C000AAFC0028FAD0022000F002FD00BF00F0D6
:1002D0000AFD0828FBD10121402000F0EBFD10BDF4
:1002E00008B54FF03C00ADF800004FF003008DF86A
:1002F00002004FF010008DF803006946014800F03D
:10030000CFFA08BD0018014010B50446FA488442EF
:1003100008D10121401500F0EBFD0021601500F02F
:10032000E7FD17E0F548844208D10121001500F0EF
:10033000DFFD0021201500F0DBFD0BE0F0488442DA
:1003400008D10121C80300F0D3FD00214FF4004083
:1003500000F0CEFD10BD30B502464FF00000034660
:100360005068E84C00EA04000D790C6844EA052462
:1003700044EA000050609068E34C00EA0400D1E9D0
:10038000025444EA05044D7944EA450444EA000075
:100390009060D06A20F470000C7CA4F10104E4B2F7
:1003A00044EA030340EA0350D06230BD4FF000013D
:1003B0000160017141718160C1604FF00101017400
:1003C000704721B1826842F00102826003E08268D6
:1003D00022F001028260704721B1826842F480728B
:1003E000826003E0826822F480728260704710B5F8
:1003F0004FF00003CBB222B1446844EA03044460E6
:1004000003E0446824EA0304446010BD816841F0BD
:1004100008018160704701464FF000008A6812F0C1
:10042000080F02D04FF0010001E04FF000007047CC
:10043000816841F004018160704701464FF000007F
:100440008A6812F0040F02D04FF0010001E04FF073
:100450000000704721B1826842F4A002826003E08C
:10046000826822F4A0028260704701464FF00000CB
:100470008A6812F4800F02D04FF0010001E04FF0C3
:100480000000704710B50A464FF000010B46416866
:1004900021F46041A2F1010341EA4331416010BD02
:1004A00021B1426842F40062426003E0426822F4F3
:1004B000006242607047F0B504460D464FF0000000
:1004C0000146092D14DDE068A5F10A0606EB460792
:1004D0004FF0070606FA07F120EA0100A5F10A0627
:1004E00006EB460603FA06F140EA0100E0600FE081
:1004F000206905EB45074FF0070606FA07F120EAE9
:10050000010005EB450603FA06F140EA010020610F
:10051000072A14DA606BA2F1010606EB86074FF09A
:100520001F0606FA07F120EA0100A2F1010606EB18
:10053000860605FA06F140EA010060632AE00D2A0A
:1005400014DA206BA2F1070606EB86074FF01F06B0
:1005500006FA07F120EA0100A2F1070606EB86067B
:1005600005FA06F140EA0100206313E0E06AA2F117
:100570000D0606EB86074FF01F0606FA07F120EA84
:100580000100A2F10D0606EB860605FA06F140EA27
:100590000100E062F0BD21B1826842F48012826005
:1005A00003E0826822F48012826070470146C86CC2
:1005B00080B2704750484C300068704721B14268A3
:1005C00042F48062426003E0426822F4806242604A
:1005D000704721B1426842F48052426003E04268B1
:1005E00022F48052426070470A464FF00001816851
:1005F00021F4E04141EA02018160704721B1826843
:1006000042F40042826003E0826822F40042826089
:10061000704721B1826842F40212826003E082686E
:1006200022F402128260704701464FF000008A688F
:1006300012F4001F02D04FF0010001E04FF0000063
:100640007047F0B5044615464FF0000002460646D6
:10065000092914DDE068A1F10A0707EB470C4FF008
:10066000070707FA0CF220EA0200A1F10A0707EBDC
:10067000470703FA07F240EA0200E0600FE0206952
:1006800001EB410C4FF0070707FA0CF220EA0200D9
:1006900001EB410703FA07F240EA02002061A06B78
:1006A000C0F3015605F1030706F1010CA7EB0C0797
:1006B00007EB870C4FF01F0707FA0CF220EA020045
:1006C00005F1030706F1010CA7EB0C0707EB870701
:1006D00001FA07F240EA0200A063F0BD10B50A4635
:1006E0004FF000010B46816B21F44011A2F1010390
:1006F00041EA0351816310BD0024014000280140FC
:10070000003C0140FFFEF0FFFDF7F1FF10B54FF098
:10071000000303460B441A6010BD02464FF000036D
:10072000134601F128000344186880B270470A4656
:100730004FF000014168284B01EA030141EA020140
:10074000416070474162826270470A464FF0000183
:10075000416821F01F0141EA02014160704730B158
:100760001E49096841F400011C4A116005E01B495B
:10077000096821F40001194A1160704702464FF0E0
:10078000000013680B4202D04FF0010001E04FF06F
:10079000000070476FEA01020260704770B50246C0
:1007A0004FF00000034604464FEA21235568CEB2BD
:1007B00005EA060415681D4203D014B14FF001008C
:1007C00001E04FF0000070BD4FF000024FEA21221F
:1007D0006FEA020303607047FFFD3FFF08240140FA
:1007E00010B50446DE48844208D10121042000F0FF
:1007F0007FFB0021042000F07BFB46E0D9488442C7
:1008000008D10121082000F073FB0021082000F02E
:100810006FFB3AE0D448844208D10121102000F057
:1008200067FB0021102000F063FB2EE0CF488442DC
:1008300008D10121202000F05BFB0021202000F0E6
:1008400057FB22E0CA48844208D10121402000F031
:100850004FFB0021402000F04BFB16E0C5488442CE
:1008600008D10121802000F043FB0021802000F00E
:100870003FFB0AE0C048844207D10121801500F007
:1008800037FB0021A01500F033FB10BD10B501218E
:10089000084600F02DFB0021012000F029FB10BDCF
:1008A0002DE9F04102464FF000052E46284603464A
:1008B0000446074691F803C00CF00F0591F803C0F9
:1008C0001CF0100F03D091F802C04CEA0505B1F8F6
:1008D00000C01CF0FF0F35D014684FF000002EE070
:1008E0004FF0010C0CFA00F3B1F800C00CEA03065B
:1008F0009E4222D14FEA80034FF00F0C0CFA03F70F
:1009000024EA070405FA03FC4CEA040491F803C046
:10091000BCF1280F06D14FF0010C0CFA00FCC2F814
:1009200014C00AE091F803C0BCF1480F05D14FF0A4
:10093000010C0CFA00FCC2F810C000F101000828FC
:10094000CED31460B1F800C0BCF1FF0F38DD54689D
:100950004FF0000031E000F1080C4FF0010808FAF8
:100960000CF3B1F800C00CEA03069E4223D14FEA13
:1009700080034FF00F0C0CFA03F724EA070405FA82
:1009800003FC4CEA040491F803C0BCF1280F05D124
:1009900000F1080C08FA0CF8C2F8148091F803C0B2
:1009A000BCF1480F07D100F1080C4FF0010808FA1C
:1009B0000CF8C2F8108000F101000828CBD3546075
:1009C000BDE8F0814FF6FF7101804FF002018170A8
:1009D0004FF00401C170704702464FF00000936869
:1009E0000B4202D04FF0010001E04FF000007047D1
:1009F0000146886880B2704702464FF00000D36815
:100A00000B4202D04FF0010001E04FF000007047B0
:100A10000146C86880B27047016170474161704704
:100A20000AB1016100E041617047C16070474FF455
:100A3000803242EA01028261816182618269826957
:100A4000704702464FF000004C4B18684FF6807319
:100A500000EA030040EA021040EA0100474B186038
:100A600070474749C8617047F0B50A464FF0000328
:100A70001C4619460D4600F00046B6F1004F02D163
:100A80003E4EF16901E03D4E7168C0F3034583B20B
:100A900000F44016B6F5401F08D121F07061374EC2
:100AA000766826F07066354F7E6017E000F4801699
:100AB000B6F5801F08D14FF0030606FA05F421EAC7
:100AC000040141F0706109E04FEA50564FEA061602
:100AD00003FA06F621EA060141F070613AB14FEAE5
:100AE00050564FEA061603FA06F646EA010100F0F0
:100AF0000046B6F1004F02D1204EF16101E01F4ED9
:100B00007160F0BD30B54FF000024FEA81734FEADB
:100B100013744FF00F0303FA04F21A4B4FEAA104C7
:100B200053F8243023EA0203164C4FEAA10544F897
:100B3000253023464FEAA10453F824304FEA81744C
:100B40004FEA147400FA04F443EA04030D4C4FEA2C
:100B5000A10544F8253030BD0B49086070470000FE
:100B600000080140000C0140001001400014014049
:100B700000180140001C014000200140000001401D
:100B80000000204208000140DC002042F7480068D5
:100B900040F00100F549086008464068F44900EA61
:100BA0000100F249486008460068F24900EA010085
:100BB000EE4908600846006820F480200860084676
:100BC000406820F4FE0048604FF41F0088607047C2
:100BD000E649096821F48031E44A11601146096848
:100BE00021F480211160B0F5803F03D0B0F5802F53
:100BF0000ED106E0DD49096841F48031DB4A11601D
:100C000007E0DA49096841F4A021D84A116000E000
:100C100000BF00BF704710B501464FF000021346F9
:100C200010464FEA6112012A02D1D04C236806E037
:100C3000022A02D1CD4C236A01E0CC4C636A01F058
:100C40001F024FF0010404FA02F41C4202D04FF0DC
:100C5000010001E04FF0000010BD70B54FF000043E
:100C60002546264600BF3120FFF7D5FF064604F192
:100C70000104B4F5A06F01D0002EF4D03120FFF7AD
:100C8000CAFF10B14FF0010501E04FF00005284602
:100C900070BD01464FF00000B44A106820F0F80023
:100CA00040EAC10010607047B349086070470246CF
:100CB0004FF00000AD4B586820F47C1042EA01036D
:100CC00043EA0000A94B58607047AB49086670477B
:100CD00001464FF00000A54A506820F0030040EAAA
:100CE000010050607047A148406800F00C00704758
:100CF00001464FF000009D4A506820F0F00040EAA5
:100D000001005060704701464FF00000974A50685C
:100D100020F4E06040EA01005060704701464FF067
:100D20000000924A506820F4605040EAC1005060D0
:100D3000704731B18D4A527A42EA00028B4B5A72A7
:100D400008E08A4A527A6FEA0003DBB202EA030241
:100D5000864B5A72704789490860704701464FF0C8
:100D60000000824A506820F4404040EA0100506090
:100D700070474FF00001824A11707C4A82F82010BF
:100D8000012802D004280AD104E04FF001017C4A76
:100D9000117005E04FF00501794A117000E000BFC5
:100DA00000BF70477749086070477049096A41EA97
:100DB00000016E4A1162704773490860704730B590
:100DC0004FF000010A460C460B46684D6D6805F071
:100DD0000C0121B1042905D0082927D105E06B4D6C
:100DE000056026E0694D056023E0604D6D6805F4FF
:100DF00070125E4D6D6805F480344FF0020505EB0E
:100E0000924224B9624D02FB05F505600DE0574D95
:100E10006D6815F4003F04D05D4D02FB05F50560DB
:100E200003E05A4D02FB05F5056002E0574D0560F1
:100E300000BF00BF4D4D6D6805F0F0014FEA111184
:100E4000544D6B5C056825FA03F54560474D6D68A8
:100E500005F4E0614FEA11214E4D6B5C456825FABF
:100E600003F58560414D6D6805F460514FEAD1216D
:100E7000484D6B5C456825FA03F5C5603B4D6D68D0
:100E800005F440414FEA9131434D6B5CC568B5FBB9
:100E9000F3F5056130BD31B1344A526942EA0002CE
:100EA000324B5A6105E0314A526922EA00022F4B67
:100EB0005A61704731B12D4A926942EA00022B4BC8
:100EC0009A6105E0294A926922EA0002274B9A6159
:100ED000704731B1254AD26942EA0002234BDA61F8
:100EE00005E0224AD26922EA0002204BDA6170470B
:100EF00031B11E4AD26842EA00021C4BDA6005E0BA
:100F00001A4AD26822EA0002184BDA60704731B1FF
:100F1000164A126942EA0002144B1A6105E0134AAC
:100F2000126922EA0002114B1A6170471B490860DE
:100F300070471149C86470470C49C87170470B4825
:100F4000406A40F0807009494862704701464FF09E
:100F50000000064A92680A4202D04FF0010001E008
:100F60004FF000007047014988727047001002403E
:100F70000000FFF8FFFFF6FE00004242D8004242A8
:100F800020100240800442423C04424200127A0097
:100F900000093D00020000201200002040044242EF
:100FA00001464FF00000FE4A106800F0380040EAA9
:100FB000010010607047FA49096821F00801F84AF9
:100FC00011601146096841EA000111607047F44957
:100FD000096821F01001F24A11601146096841EADE
:100FE000000111607047EF48ED494860EE484860E5
:100FF0007047EC48EA494860EB4848607047E84869
:10100000006940F08000E64908617047E4480069E3
:1010100040F08000E249086170474FF00400E04969
:10102000C96801F00101012902D14FF0010011E06E
:10103000DB49C96811F0040F02D04FF0020009E04B
:10104000D749C96811F0100F02D04FF0030001E03A
:101050004FF00400704700B502464FF00403FFF75D
:10106000DCFF034604E0FFF7D8FF0346A2F10102CC
:10107000012B01D1002AF6D10AB94FF00503184619
:1010800000BD30B504464FF004054FF43020FFF7A3
:10109000E2FF0546042D18D1C148006940F0020066
:1010A000BF49086108464461006940F0400008619A
:1010B0004FF43020FFF7CFFF0546B948006941F6ED
:1010C000FD7100EA0100B6490861284630BD10B53F
:1010D0004FF004044FF43020FFF7BDFF0446042C0A
:1010E00017D1AF48006940F00400AD4908610846D7
:1010F000006940F0400008614FF43020FFF7ABFF7B
:101100000446A748006941F6FB7100EA0100A449C2
:101110000861204610BD00B502464FF00403FFF7FA
:101120007CFF034604E0FFF778FF0346A2F10102CB
:10113000012B01D1002AF6D10AB94FF00503184658
:1011400000BD10B54FF004044FF43020FFF7E3FF6B
:101150000446042C17D19248006940F004009049DD
:1011600008610846006940F0400008614FF43020F3
:10117000FFF7D1FF04468A48006941F6FB7100EA97
:10118000010087490861204610BD4FF000008449E6
:10119000C96911F0020F02D04FF0010001E04FF0D9
:1011A0000000704730B54FF0A5054FF00404FFF77D
:1011B000ECFF08B14FF000054FF43020FFF74BFF74
:1011C0000446042C3ED1774875498860764888608B
:1011D0000846006940F0200008610846006940F0B8
:1011E000400008614FF43020FFF735FF0446042C1F
:1011F0001ED16B48006941F6DF7100EA01006849C1
:1012000008610846006940F01000086167480580E1
:101210004FF40050FFF71FFF0446052C12D0604822
:10122000006941F6EF7100EA01005D49086109E0DB
:10123000052C07D05A48006941F6EF7100EA010019
:1012400057490861204630BDF0B504460D464FF0C1
:1012500004064FF000074FF40050FFF7FCFE06466F
:10126000042E28D14E48006940F001004C49086125
:1012700025804FF40050FFF7EEFE0646042E12D1F3
:1012800004F102074FEA154038804FF40050FFF791
:10129000E2FE06464248006941F6FE7100EA01009E
:1012A0003F49086107E03E48006941F6FE7100EAE7
:1012B00001003B4908613046F0BD70B504460D465B
:1012C0004FF004064FF40050FFF7C5FE0646042E0B
:1012D00013D13348006940F001003149086125808D
:1012E0004FF40050FFF7B7FE06462D48006941F65F
:1012F000FE7100EA01002A490861304670BD70B5F0
:1013000005460E464FF004044FF40050FFF7A3FECD
:101310000446042C19D1234821498860224888605A
:101320000846006940F0100008612E804FF400501C
:10133000FFF791FE0446052C07D01948006941F6D5
:10134000EF7100EA010016490861204670BD2DE9E1
:10135000F04304464FF6FF763746B046B1464FF0AD
:1013600004056FEA0404E6B2C4F30727C4F3074890
:101370004FEA14694FF40050FFF76DFE0546042D47
:101380004CD10848064988600748886008460069CB
:1013900040F010000861FF2E11D00548068009E0DA
:1013A0000020024023016745AB89EFCD00F8FF1F05
:1013B00008F8FF1F4FF40050FFF74DFE0546042DBF
:1013C00008D1FF2F06D0884807804FF40050FFF760
:1013D00042FE0546042D0AD1B8F1FF0F07D083481D
:1013E000A0F800804FF40050FFF735FE0546042DAD
:1013F0000AD1B9F1FF0F07D07D48A0F800904FF453
:101400000050FFF728FE0546052D07D079480069F2
:1014100041F6EF7100EA0100764908612846BDE80F
:10142000F08330B505464FF004044FF43020FFF749
:1014300012FE0446042C46D16F486E4988606F48FE
:1014400088600846006940F020000861084600698D
:1014500040F0400008614FF43020FFF7FCFD0446E7
:10146000042C26D16348006941F6DF7100EA0100CF
:10147000604908610846006940F01000086125B124
:101480004FF000005E49088003E04FF0A5005C4982
:1014900008804FF43020FFF7DEFD0446052C12D003
:1014A0005448006941F6EF7100EA010051490861B2
:1014B00009E0052C07D04F48006941F6DF7100EACA
:1014C00001004C490861204630BDF0B505460E4686
:1014D00017464FF0040448484649886047488860EA
:1014E0004FF40050FFF7B7FD0446042C1CD14148CF
:1014F000006940F010003F49086147F0F80040EAF9
:10150000060040EA05003F4908804FF40050FFF70D
:10151000A2FD0446052C07D03648006941F6EF715C
:1015200000EA0100334908612046F0BD3148C06936
:10153000800870472F48006A70474FF000002D491F
:10154000096811F0200F02D04FF0010001E04FF0C8
:101550000000704731B1274A126942EA0002254B68
:101560001A6105E0234A126922EA0002214B1A613E
:10157000704701464FF0000001290AD11D4AD26987
:1015800012F0010F02D04FF001000BE04FF000000D
:1015900008E0184AD2680A4202D04FF0010001E088
:1015A0004FF0000070471349C86070474FF00400C7
:1015B0001049C96801F00101012902D14FF0010071
:1015C00011E00C49C96811F0040F02D04FF002007D
:1015D00009E00849C96811F0100F02D04FF003006C
:1015E00001E04FF0040070470AF8FF1F0CF8FF1FDE
:1015F0000EF8FF1F0020024023016745AB89EFCDA5
:1016000000F8FF1F02F8FF1F4FF0000108466D4A67
:10161000126842F480326B4B1A6000BF694A12684C
:1016200002F4003001F1010110B9B1F5A06FF5D15C
:10163000644A126812F4003F02D04FF0010001E04A
:101640004FF00000012842D15F4A126842F01002B8
:101650005D4B1A601A46126822F003021A601A469D
:10166000126842F002021A60564A5268554B5A609C
:101670001A4652685A601A46526842F480625A60AA
:101680001A46526822F47C125A601A46526842F492
:10169000E8125A601A46126842F080721A6000BF5F
:1016A000484A126812F0007FFAD0464A526822F087
:1016B0000302444B5A601A46526842F002025A60D2
:1016C00000BF404A526802F00C02082AF9D1704764
:1016D00010B5FFF799FF10BD10B53A48006840F00B
:1016E00001003849086008464068384900EA0100AE
:1016F0003449486008460068354900EA010031492C
:1017000008600846006820F48020086008464068A9
:1017100020F4FE0048604FF41F008860FFF7D8FFF8
:101720004FF000602B49086010BD10B54FF000016C
:1017300008460246234B5B6803F00C0121B10429E3
:1017400006D008292CD107E0234B244C23602BE042
:10175000214B224C236027E01A4B5B6803F4701086
:10176000184B5B6803F480324FF0020303EB9040A8
:101770002AB91B4B00FB03F3184C23600FE0114BFD
:101780005B6813F4003F05D0154B00FB03F3134CCB
:10179000236004E0104B00FB03F3104C236003E0D4
:1017A0000D4B0E4C236000BF00BF064B5B68C3F3BC
:1017B00003130C4CE15C094B1B6823FA01F3074C43
:1017C000236010BD00100240002002400000FFF81E
:1017D000FFFFF6FE08ED00E000127A00180000207E
:1017E00000093D001C0000200948804709480047C7
:1017F000FEE7FEE7FEE7FEE7FEE7FEE7FEE7FEE7C1
:10180000FEE7FEE704480549054A064B704700001D
:10181000D916000831010008900000209006002031
:101820009002002090020020704770477047754674
:1018300000F028F8AE4605006946534620F0070040
:10184000854618B020B5FFF7DDFFBDE820404FF01A
:1018500000064FF000074FF000084FF0000B21F09A
:101860000701AC46ACE8C009ACE8C009ACE8C00967
:10187000ACE8C0098D4670470446AFF300802046AF
:10188000FEF79FFC004870472C000020004870477E
:101890003000002001491820ABBEFEE72600020000
:1018A000704710B5FFF7F2FF4FF00001016010BD67
:1018B000D0180008000000202C0000006C01000877
:1018C000FC1800082C0000206406000088010008B5
:1018D00000000000000001020304010203040607E7
:1018E000080902040608000000A24A0400000000E3
:0C18F000000000000102030406070809C4
:0400000508000131BD
:00000001FF
