:020000040800F2
:1000000048040020A1230008A5020008A702000858
:10001000A9020008AB020008AD02000800000000C1
:10002000000000000000000000000000AF02000817
:10003000B102000800000000B3020008B502000889
:10004000BB230008BB230008BB230008BB23000818
:10005000BB230008BB230008BB230008BB23000808
:10006000BB230008BB230008BB230008BB230008F8
:10007000BB230008BB230008BB230008BB230008E8
:10008000BB230008BB230008BB230008BB230008D8
:10009000BB230008BB230008BB230008BB230008C8
:1000A000BB230008BB230008BB230008BB230008B8
:1000B000B902000819030008BB230008BB2300088D
:1000C000BB230008BB230008BB230008BB23000898
:1000D000BB230008BB230008BB230008BB23000888
:1000E000BB230008BB230008BB230008000000005E
:1000F0000000000000000000000000000000000000
:100100000000000000000000BB230008BB23000823
:10011000BB230008BB230008BB230008BB23000847
:10012000BB230008BB230008BB230008BB23000837
:10013000BB230008BB230008BB230008BB23000827
:10014000BB230008BB230008BB230008BB23000817
:10015000DFF80CD002F0AEFC00480047D9010008DF
:100160004804002010B500F0EDF900F0A1F900F00E
:1001700039FA00F051F900F0E5F800F029F93348B8
:100180004FF47A710068B0FBF1F13148B1F1807F32
:1001900003D3202100F0A9FDFEE721F07F424FF0BC
:1001A000E021521E4A612B4BF0221A7000228A6114
:1001B00007220A610421044600F095FD082120462B
:1001C00000F091FD1021204600F08DFD2046BDE895
:1001D0001040202100F087BDFFF7C4FF1E4FDFF85D
:1001E0007C901F4D1F4E4FF06638384600F04CF99A
:1001F000044602F0E2F96421484302F0CDF9424698
:100200004B4602F055F902F0F1F9401D28602868CC
:10021000C0F178003060204602F007FA02460B4633
:1002200011A002F07BFC962000F02CF8DDE770B501
:10023000134D0446C1B2284601F044FF4021284630
:1002400001F0A1FF0028F9D0204670BD2C0000204D
:100250000018014023ED00E03333534066660A4046
:100260000C000020100000200D0A20414456616C53
:100270007565203D20252E326620560D0A000000AF
:10028000003801400649086008680028FCD1704722
:1002900003480168002902D00168491E01607047C7
:1002A000000000207047FEE7FEE7FEE7FEE770472C
:1002B00070477047FFF7ECBF70B502214D07284625
:1002C00001F061FC00281ED00221284601F067FCE5
:1002D000194C0821204600F0FCFCC0F10100C2B21C
:1002E0000821204600F003FD284601F035FC134CA0
:1002F0002080616841B1E168084481B2284601F07C
:100300001AFC0020606070BDA168084481B22846D4
:1003100001F011FC0120F5E710B5094C0121204640
:1003200001F031FC002805D02046BDE81040012135
:1003300001F035BC10BD0000001801400400002091
:1003400000040040F0B587B041F2883041F61F4507
:10035000ADF80400ADF800500024C606ADF8024028
:100360006946304600F07EFF294F0122114638468B
:1003700001F025FA0121384601F00CFA4FF6FF7022
:10038000ADF80400ADF80050ADF8024069463046C3
:1003900000F068FFADF80C400120ADF80E001D48DC
:1003A000ADF814400088ADF8120003A9304600F003
:1003B00092FF0021304601F0BEFA012202213046B0
:1003C00001F0FDF90121304601F0E4F907B0F0BD7C
:1003D00038B54FF4E06000F031F91C208DF80000D2
:1003E00000248DF801408DF8024001258DF803505E
:1003F000684600F028F91D208DF800008DF80140B6
:100400008DF802508DF80350684600F01CF938BD95
:10041000000400401400002010B586B04FF44040A6
:1004200000F09BFD002201204FF46021CDE9021273
:100430008DF804001C4C8DF805008DF8100000921A
:100440006946204601F0CAFB052301220921204606
:1004500001F044FC0121204601F0E8FB204601F0B8
:1004600002FC204601F004FC0028FAD1204601F0ED
:1004700006FC204601F008FC0028FAD101212046A4
:1004800001F009FC06B010BD10B50446064801F0A5
:1004900069FC02F07CF8214601F094FFBDE81040B1
:1004A000024901F0C5BF00000024014000F07F4573
:1004B00038B50121402000F0DBFD3C20ADF8000004
:1004C00003208DF8020010208DF803006946414892
:1004D00000F09FFB4FF47070ADF8000004248DF81D
:1004E000034069463C4800F094FB0121102000F0D5
:1004F000BFFD01214FF4027000F0BAFD0220ADF8FB
:10050000000000208DF803006946344800F081FBAC
:10051000012144F2040000F0ABFDE001ADF8000061
:1005200018202F4D8DF803006946284600F071FB16
:100530002102ADF800108DF803406946284600F00E
:1005400068FB38BD10B500F041FC4FF48034204604
:1005500000F05BFC00F086FC012835D1102000F093
:10056000D5F8022000F0C2F8002000F0D4FC0020F2
:1005700000F0DFFC002000F0D5FC402000F0A4FCDF
:100580004FF4C06000F0A7FC012000F0ABFC3B2062
:1005900000F053FC0028FAD00421204600F08BFC28
:1005A0004FF4E011204600F07BFC012000F080FCBD
:1005B000392000F042FC0028FAD0022000F09FFC15
:1005C00000F0A4FC0828FBD10121BDE81040032065
:1005D00000F057BD0018014000100140000C014020
:1005E0000008014030B587B000244FF40070ADF82A
:1005F0001400114DADF81040ADF81240ADF81640A2
:1006000004A9284601F0F3FC4FF416500090ADF811
:1006100008400C20ADF80440ADF80A00ADF80640E3
:10062000ADF80C406946284601F07EFC01212846C1
:1006300001F0F2FC07B030BD003801402749084303
:1006400027490860704770B50F24C27801780125EA
:100650004FF0E026DAB1224A126802F4E062C2F5F5
:10066000E062120AC2F10403D44042789A408378CF
:10067000234013431A011B4BCA54007800F01F019A
:100680008D40400906EB8000C0F8005170BD01F0BC
:100690001F008540480906EB8000C0F8805170BDFE
:1006A000114A114001430E48001F016070470C4A77
:1006B000121D0029116801D0014300E0814311603F
:1006C00070474FF0E0210428086903D020F00400AF
:1006D0000861704740F00400FAE700000000FA05E6
:1006E0000CED00E000E400E080FFFF1FFB4A116812
:1006F00001F03801014311607047F8490A6822F09F
:1007000008020A600A6802430A607047F3490A68EF
:1007100022F010020A600A6802430A607047EF483C
:10072000EF494160EF4941607047EC48EC49416056
:10073000EC4941607047E948016941F0800101617D
:100740007047E648016941F0800101617047E34963
:100750000420CA68D20701D001207047CA68520736
:1007600001D502207047C968C906FBD50320704730
:1007700000B50346FFF7EBFF02E0FFF7E8FF5B1E63
:10078000012803D0002B00D1052000BD002BF4D19F
:10079000FAE770B505464FF430263046FFF7E8FF1C
:1007A000042811D1CD4C206940F002002061656120
:1007B000206940F0400020613046FFF7D9FF2169F1
:1007C00041F6FD721140216170BD30B54FF4302506
:1007D0002846FFF7CDFF042810D1C04C206940F017
:1007E00004002061206940F0400020612846FFF7A6
:1007F000BFFF216941F6FB721140216130BD00B598
:100800000346FFF7A4FF02E0FFF7A1FF5B1E0128EC
:1008100003D0002B00D1052000BD002BF4D1FAE756
:1008200030B54FF430252846FFF7E9FF042810D1F2
:10083000AA4C206940F004002061206940F040008B
:1008400020612846FFF7DBFF216941F6FB7211406A
:10085000216130BDA1490020C969890700D5012067
:10086000704770B5A525FFF7F5FF00B100254FF4DF
:1008700030263046FFF77CFF042827D1974C984854
:10088000A0609848A060206940F0200020612069A5
:1008900040F0400020613046FFF76AFF41F6EF76F6
:1008A00004280ED1206941F6DF71084020612069DB
:1008B00040F0100020618C4805804FF40050FFF795
:1008C00057FF052802D021693140216170BDF0B584
:1008D00005464FF4005C0E466046FFF749FF0428CA
:1008E00014D17E4C206940F0010020612E806046CA
:1008F000FFF73EFF41F6FE77042804D1300C6880F4
:100900006046FFF735FF216939402161F0BDF0B540
:1009100005464FF400570E463846FFF729FF0428D6
:100920000CD16E4C206940F0010020612E803846C9
:10093000FFF71EFF2169BA1E11402161F0BDF0B51D
:1009400005464FF400570E463846FFF711FF0428BE
:1009500013D1624C6248A0606248A060206940F0F8
:10096000100020612E803846FFF702FF052804D0D2
:10097000216941F6EF7211402161F0BD2DE9F0418E
:10098000C043C4B2C0F30725C0F30746070E4FF4B7
:1009900000584046FFF7ECFE04283CD1DFF83CC18C
:1009A0004F49CCF808104F49CCF80810DCF810106B
:1009B00041F01001CCF81010FF2C07D04A48083045
:1009C00004804046FFF7D4FE04281BD1FF2D07D03A
:1009D00045480A3005804046FFF7CAFE042811D179
:1009E000FF2E07D040480C3006804046FFF7C0FE7F
:1009F000042807D1FF2F07D03B480E300780404620
:100A0000FFF7B6FE052806D0DCF8101041F6EF72AD
:100A10001140CCF81010BDE8F08170B506464FF4D7
:100A200030252846FFF7A4FE042818D12B4C2C486B
:100A3000A0602C48A060206940F02000206120695F
:100A400040F0400020612846FFF792FE41F6DF713A
:100A5000042805D0052802D022690A40226170BD11
:100A6000206908402061206940F0100020611E4884
:100A70000EB1002100E0A52101802846FFF778FE95
:100A80000528ECD0216941F6EF721140216170BD5B
:100A9000F0B5124C064612480D461746A0601148A4
:100AA000A0604FF4005C6046FFF762FE042814D19A
:100AB000206940F0100020613D430B493543891CFB
:100AC00045F0F80008806046FFF752FE052804D084
:100AD000216941F6EF7211402161F0BD0020024012
:100AE00023016745AB89EFCD00F8FF1F1C48C069A3
:100AF000800870471A48006A704719490020096841
:100B0000890600D501207047154A0029116901D0D6
:100B1000014300E081431161704701460020104A03
:100B2000012903D0D2680A4203D17047D169C907AD
:100B3000FBD0012070470A49C8607047084904206B
:100B4000CA68D20701D001207047CA68520701D590
:100B500002207047C968C906FBD503207047000012
:100B6000002002408F4910B5884206D1012104209F
:100B700000F099FA002104203BE08B49884206D11D
:100B80000121082000F08FFA0021082031E0874978
:100B9000884206D10121102000F085FA00211020A2
:100BA00027E08349884206D10121202000F07BFA0A
:100BB000002120201DE07F49884206D101214020EC
:100BC00000F071FA0021402013E07B49884206D1F1
:100BD0000121802000F067FA0021802009E0774998
:100BE00088420AD184150121204600F05CFA0021D8
:100BF0002046BDE8104000F056BA10BD10B50121E6
:100C0000084600F050FA0021BDE81040012000F035
:100C10004ABAF0B5CC78002204F00F03E40601D5FF
:100C20008C7823430C884FF00F0C14F0FF0F4FF01B
:100C3000010E1AD005680E880EFA02F42640A6426C
:100C40000FD196000CFA06F7BD4303FA06F63543BA
:100C5000CE78282E02D0482E02D002E0446100E077
:100C60000461521C082AE6D305600A88FF2A1DD9B0
:100C70004568002202F108060EFA06F40E882640A6
:100C8000A6420FD196000CFA06F725EA070703FAE9
:100C900006F5CE783D43282E00D14461CE78482E0B
:100CA00000D10461521C082AE4D34560F0BD4FF620
:100CB000FF710180022181700421C17070470246DA
:100CC000002092680A4200D001207047806880B2FC
:100CD000704702460020D2680A4200D001207047C7
:100CE000C06880B2704701617047416170470AB1C6
:100CF0000161704741617047C160704741F48032C3
:100D00008261816182618169806970472C4B10B575
:100D10001A684FF68074224042EA001008431860B7
:100D200010BD2849C8617047F0B5254C002801DA8C
:100D3000E36900E06368420D120185B2C0F3015718
:100D40009540C0F30346032F05D0C2020AD5032203
:100D5000B240934307E023F07062636823F070634E
:100D6000636002E0AB4343F0706201B12A430028A4
:100D700001DAE261F0BD6260F0BD10B58A0721F0D2
:100D800003040F49120F21440F238C6893409C43A6
:100D90008C608B68904003438B6010BD0A490860EB
:100DA0007047000000080140000C014000100140A5
:100DB0000014014000180140001C014000200140C7
:100DC0000000014000002042DC002042CC480168C5
:100DD00041F0010101604168CA4A11404160016867
:100DE000C94A11400160016821F480210160416815
:100DF00021F4FE014160016821F0A05101604FF42F
:100E00007F0181600021C1627047BD490A6822F4F8
:100E100080320A600A6822F480220A60B0F5803FBE
:100E200007D0B0F5802F03D1086840F4A0200860F7
:100E30007047086840F48030F9E7034600205909FC
:100E4000AF4A01290AD002290AD0516A03F01F02D1
:100E5000012393400B4200D0012070471168F5E751
:100E6000116AF3E730B500244FF4A0653120FFF795
:100E7000E4FF641CAC4201D00028F7D03120FFF71A
:100E8000DCFF002800D0012030BD9D4A116821F010
:100E9000F80141EAC000106070479C490860704743
:100EA000974B5A68084322F47412104358607047F5
:100EB000964908667047924B10B5DA6A944C08431D
:100EC00022401043D86210BD8D4AD16A21F0F00152
:100ED0000143D16270478A4AD16A21F470610143AB
:100EE000D1627047894988667047854AD16A21F482
:100EF00070410143D1627047844908677047804A56
:100F0000516821F003010143516070477C484068FB
:100F100000F00C0070477A4A516821F0F00101435B
:100F200051607047764A516821F4E0610143516095
:100F30007047734A516821F4605141EAC000506023
:100F400070476F4A0029517A01D0014300E0814384
:100F5000517270476F4908607047694A516821F4BF
:100F600040410143516070476B49086070476A49CE
:100F7000091D08607047694900220A7001F820299C
:100F8000012802D0042802D1052081F820007047F2
:100F90006349086070475A490A6A02430A62704707
:100FA0005F4944390860704770B5554B59685D4AD0
:100FB00011F00C0104D05C4C042903D0082903D0A3
:100FC000026029E0046027E059685A6801F4701152
:100FD000890C02F480320D2901D0891C00E0062121
:100FE000BAB1DA6A12F4803FDA6A02F00F0202F153
:100FF00001020AD0DD6ADE6AC5F303156D1CB4FB7D
:10100000F5F4C6F30326B61C7443B4FBF2F24A436C
:10101000D6E7464A514301605968454A01F0F0015C
:101020000909545C0168E14041605C6804F4E064D3
:10103000240A145D21FA04F484605C6804F46054AA
:10104000E40A125DD140C1605A68394B02F4404253
:10105000920B1B1F9A5CB1FBF2F1016170BD284A33
:101060000029516901D0014300E08143516170477B
:10107000234A0029916901D0014300E08143916135
:1010800070471F4A0029D16901D0014300E0814324
:10109000D16170471A4A0029916A01D0014300E0EA
:1010A000814391627047164A0029D16801D00143FB
:1010B00000E08143D1607047114A0029116901D0D5
:1010C000014300E0814311617047154940390860D0
:1010D00070470E49C86470470949C871704708488D
:1010E000416A41F0807141627047054A0146002023
:1010F00092680A4200D00120704701498872704707
:10110000001002400000FFF0FFFFF6FE0000424228
:10111000F0FFFEFFD8004242C405424220100240C8
:101120008004424200127A0040787D0100093D00AF
:101130001A000020F64910B5884202D10121C414DA
:1011400086E0B0F1804F09D0F24988420DD10121EB
:101150000220FFF7B1FF0021022064E001210846D0
:10116000FFF7AAFF002101205DE0EB49884206D18C
:1011700001210420FFF7A0FF0021042053E0E749EC
:10118000884206D101210820FFF796FF00210820A0
:1011900049E0E349884206D101211020FFF78CFF86
:1011A000002110203FE0DF49884206D101212020A4
:1011B000FFF782FF0021202035E0DB49884202D181
:1011C0000121441444E0D949884202D10121CC04D0
:1011D0003EE0D749884202D101210C0538E0D549CB
:1011E000884202D101214C0532E0D349884206D120
:1011F00001214020FFF760FF0021402013E0CF498C
:10120000884206D101218020FFF756FF002180206F
:1012100009E0CB4988420AD1841501212046FFF715
:101220004BFF00212046BDE81040FFF745BFC549F0
:10123000884202D101210C040AE0C349884202D14C
:1012400001214C0404E0C14988420AD101218C04E7
:101250002046FFF728FF2046BDE810400021FFF799
:1012600022BF10BD30B50288A94CAF4DA0420DD0B1
:10127000A8420BD0B0F1804F08D0A64B984205D0C1
:10128000A54B984202D0A54B984203D122F070039F
:101290004A881A43A24B984206D0A24B984203D0E8
:1012A00022F44073CA881A4302808A8882850A8899
:1012B0000285A0420AD0A84208D0A24A904205D096
:1012C000A14A904202D0A14A904201D1097A0186F6
:1012D0000121818230BD30B5028C22F001020284EE
:1012E000028C8388048B22F0020224F073050C88A0
:1012F0002C430D8915434A882A43854DA8420BD0BB
:10130000894DA84208D08F4DA84205D08E4DA842E5
:1013100002D08E4DA8420DD122F008054A8923F44F
:1013200040732A4322F004058A882A438D891D438D
:10133000CB892B4383800483C9888186028430BD96
:1013400030B5028C22F010020284028C8388048B58
:1013500022F0200224F4E6450C88240645EA1444D1
:101360000D892D0542EA15454A88120545EA1242C3
:10137000674DA84202D06C4DA84215D122F08005DD
:101380004A8923F44063120545EA124222F04005DF
:101390008A88120545EA12428D89AD0443EA154553
:1013A000CB899B0445EA134383800483C988018762
:1013B000028430BD30B5028C22F480720284028C2B
:1013C0008388848B22F4007224F073050C882C43EC
:1013D0000D892D0642EA15454A88120645EA124251
:1013E0004B4DA84202D0504DA84215D122F40065C1
:1013F0004A8923F44053120645EA124222F48065DA
:101400008A88120645EA12428D892D0543EA154560
:10141000CB891B0545EA134383808483C988818770
:10142000028430BD30B5028C22F480520284048CD8
:101430008288838B23F4E6450B881B0645EA134319
:1014400024F400550C89240745EA14444D882D07DF
:1014500044EA15452E4CA04202D0334CA04205D19F
:1014600022F480448A89920544EA1242828083836E
:10147000C988A0F84010058430BD828B22F44062F8
:101480008283828B42EA012282837047828B22F020
:101490000C028283828B0A4382837047028B22F480
:1014A00040620283028B42EA01220283704770B5D8
:1014B000048C24F010040484068B048C26F47346F8
:1014C0001B0746EA1343120643EA12420D05104B6E
:1014D0002D0C98420ED0144B98420BD0B0F1804F97
:1014E00008D00C4B984205D00B4B984202D00B4BC6
:1014F000984205D124F02001294341F0100104E075
:1015000024F0A0030B4343F010010283018470BD5B
:10151000002C01400004004000080040000C004086
:10152000001000400014004000340140004C014015
:10153000005001400054014000180040001C0040D1
:1015400000200040004001400044014000480140AC
:10155000028B22F00C020283028B0A430283704743
:1015600030B5048C24F001040484058B048C1B0525
:1015700042EA134325F0F305F84A2B4390420ED07C
:10158000F74A90420BD0B0F1804F08D0F54A904214
:1015900005D0F54A904202D0F44A904202D124F09C
:1015A000020201E024F00A020A4342F0010103832F
:1015B000018430BD2DE9F05F0D4604460E88E748F2
:1015C000DFF89CC3DFF89CA3DFF89CB34988AA88A6
:1015D0002B894FF0804E4EB3042E2FD0082E268C30
:1015E00034D026F480562684B4F81C90268C0F073D
:1015F0004FEA1748120629F473471B0747EA1242BD
:1016000042EA1343224684420BD01046624508D07A
:10161000744506D0504504D05C4502D0D34884427E
:1016200043D126F4005040EA080041E02046FFF78D
:1016300097FFE9882046BDE8F05F89E72046FFF77D
:1016400036FFE9882046BDE8F05F27E726F480767C
:101650002684A78B268C1B0542EA134327F0F30749
:101660004FEA01683B434FEA1848224684420BD0B8
:101670001046624508D0744506D0504504D05C45FC
:1016800002D0BA48844204D126F4007040EA08002F
:1016900002E026F42060084340F48070A383208495
:1016A000E9882046BDE8F05FF0E626F402400843F2
:1016B00040F48050A3832084E9882046BDE8F05F91
:1016C000DBE62DE9F0410C46002549880746012656
:1016D00001B90225A288012A00D102262088238987
:1016E0000028384610D0FFF7E2FEE1883846FFF7C1
:1016F000D5FE2389324629463846FFF731FFE18877
:101700003846BDE8F04123E7FFF72AFFE188384675
:10171000FFF71EFF2389324629463846FFF7C7FEEA
:10172000E1883846BDE8F041B8E610B50A884B8834
:10173000CC881A438B8823431A430B891A434B895D
:1017400089891A430A43A0F8442010BD4FF6FF715F
:10175000818000210180C180418001727047002199
:10176000018041808180C180018141818181C1816D
:10177000704700210180418001228280C180018167
:1017800070470021018041808180C18001814181B9
:10179000818170470029018802D041F0010101E0F8
:1017A00021F0010101807047002930F8441F02D068
:1017B00041F4004101E0C1F30E0101807047002AAD
:1017C000828901D00A4300E08A4382817047818286
:1017D00070471143A0F848107047002A828901D051
:1017E0000A4300E08A4382817047018921F00701A2
:1017F00001817047028922F070020A43028170471A
:1018000000B50346FFF7F6FF188940F0070018817E
:1018100000BD70B50D4611460446602D4FF0010223
:101820000AD0FFF79DFE29462046FFF7E3FF2089F7
:1018300040F00700208170BDFFF739FEF3E710B5D7
:10184000048942EA0323E4B20B432343038110BD1E
:1018500010B50446FFF7F3FF208940F077002081A0
:1018600010BD10B50446FFF7EAFF208940F4804020
:10187000208110BD018582827047028822F07002AB
:101880000A430280704770B50589048B068C25F0E9
:1018900007050D434FF6FC410C4040F201110C438B
:1018A00026F0220642EA03113143058104830184B4
:1018B00070BD028B22F070020A4302837047028BD4
:1018C00022F4E04242EA012101837047828B22F038
:1018D00070020A4382837047828B22F4E04242EA1C
:1018E0000121818370470029018802D041F08001E5
:1018F00001E021F08001018070470029818802D039
:1019000041F0040101E021F00401818070470029C9
:10191000818802D041F0080101E021F008018180B6
:1019200070470029818802D041F0010101E021F0D7
:10193000010181807047028B22F008020A43028372
:101940007047028B22F4006242EA01210183704752
:10195000828B22F008020A4382837047002C0140E8
:10196000003401400004004000080040000C00402A
:10197000828B22F4006242EA01218183EDE7028B2F
:1019800022F004020A430283E7E7028B22F480621A
:1019900042EA01210183E0E7828B22F004020A433C
:1019A0008283DAE7828B22F4806242EA012181831A
:1019B000D3E7028B22F080020A430283CDE7028B39
:1019C000C2F30E0242EA01210183C6E7828B22F0B4
:1019D00080020A438283C0E7828BC2F30E0242EA8E
:1019E00001218183B9E7028C22F002020A430284BA
:1019F000B3E7028C22F008020A430284ADE7028CAE
:101A000022F0200242EA01110184A6E7028C22F0B2
:101A1000800242EA011101849FE7028C22F40072E5
:101A200042EA0121018498E7028C22F4006242EA32
:101A30000121018491E7028C22F4005242EA013133
:101A400001848AE710B50123048C8B409C430484F5
:101A5000038C8A401343038410BD10B50423048C07
:101A60008B409C430484038C8A401343038410BD41
:101A700030B50124058C00F118038C40A543058482
:101A800079B108290DD0091F88B203EB5000016815
:101A900021F4E041016001681206120C114301605B
:101AA00030BD03EB5100016821F070010160016855
:101AB000F4E70029018802D041F0020101E021F0A1
:101AC0000201018049E70029018802D041F00401A8
:101AD00001E021F0040101803FE70029818802D064
:101AE00041F0800101E021F08001818035E702882A
:101AF00022F00802028002880A4302802DE78288D1
:101B000022F07002828082880A43828025E702895F
:101B100022F00702028102890A4302811DE702893D
:101B200022F08002028102890A43028115E7818442
:101B300013E7818511E781860FE701870DE781872C
:101B40000BE7A0F8401008E7028822F440720280F8
:101B500002880A43028000E7808EFEE6008FFCE6E2
:101B6000808FFAE6B0F84000F7E6808CF5E6008D4D
:101B7000F3E602460020128A0A4200D00120ECE679
:101B8000C9430182E9E602460020138A92890B428A
:101B900002EA010202D0002A00D00120DDE6C9439A
:101BA0000182DAE6C24910B5884202D1012144150A
:101BB0000AE0C049884202D10121041504E0BE496F
:101BC00088420AD10121CC032046FFF76CFA204657
:101BD000BDE810400021FFF766BA10BD10B542689D
:101BE000B64B0C791A400B6842EA04221343436057
:101BF0008268B34B1A40D1E9024323434C7942EA4D
:101C0000440213438360C26A097C22F47002491EB5
:101C1000C9B242EA0151C16210BD002101600171E7
:101C200041718160C16001210174704700298168A0
:101C300002D041F0010101E021F001018160704713
:101C40000029816802D041F4807101E021F48071A3
:101C500081607047002A4268C9B201D00A4300E09F
:101C60008A4342607047816841F008018160704793
:101C7000014600208968090700D501207047816866
:101C800041F00401816070470146002089684907DE
:101C900000D5012070470029816802D041F4A001DD
:101CA00001E021F4A00181607047014600208968AD
:101CB000490200D5012070474268491E22F4604263
:101CC00042EA4131416070470029416802D041F445
:101CD000006101E021F400614160704770B50726A2
:101CE00009290AD9C568A1F10A0404EB4404A640F5
:101CF000B543A3401D43C56007E0056901EB4104FE
:101D0000A640B543A3401D4305611F23072A09D2FE
:101D1000446B521E02EB820293409C4391400C4361
:101D2000446370BD0D2A09D2046BD21F02EB8202FC
:101D300093409C4391400C43046370BDC46A0D3AC8
:101D400002EB820293409C4391400C43C46270BDFD
:101D50000029816802D041F4801101E021F4801152
:101D600081607047C06C80B2704751484C30006849
:101D700070470029416802D041F4806101E021F4FC
:101D80008061416070470029416802D041F4805170
:101D900001E021F4805141607047826822F4E04202
:101DA0000A43826070470029816802D041F40041F3
:101DB00001E021F40041816070470029816802D070
:101DC00041F4021101E021F40211816070470146E3
:101DD00000208968890200D50120704770B5072668
:101DE00009290AD9C568A1F10A0404EB4404A640F4
:101DF000B543A3401D43C56007E0056901EB4104FD
:101E0000A640B543A3401D430561836BC3F3015452
:101E1000121B921C02EB82021F249440A3439140A8
:101E20000B43836370BD826B491E22F4401242EA69
:101E3000015181637047425070470844806A80B204
:101E4000704742681F4B1A400A4342607047416224
:101E500082627047426822F01F020A434260704764
:101E6000134908310028086802D040F4000001E05E
:101E700020F40000086070470246002012680A4201
:101E800000D001207047C9430160704710B5024679
:101E9000002054680B0AC9B20C401168194202D0E4
:101EA000002C00D0012010BD6FEA112101607047A5
:101EB0000024014000280140003C0140FFFEF0FFEB
:101EC000FDF7F1FFFFFD3FFFC64910B588420AD17B
:101ED00001218C032046FFF7E6F82046BDE81040BC
:101EE0000021FFF7E0B8C049884202D101214C042B
:101EF00010E0BE49884202D101218C040AE0BC49AD
:101F0000884202D10121CC0404E0BA4988420AD1B6
:101F100001210C052046FFF7CFF82046BDE8104010
:101F20000021FFF7C9B810BD30B50D46018A85B054
:101F300004464CF6FF700140E88808432082A089DF
:101F40004EF6F3110840A9882A8911436A89024391
:101F50001143A181A18A4FF6FF400140A88908439F
:101F6000A0826846FFF720F89E48844201D103987A
:101F700000E00298A1890904002900EBC00101EBEF
:101F80000010296802DA4FEA410101E04FEA8101BD
:101F9000B0FBF1F06422B0FBF2F14FEA01114FEA1D
:101FA00011136FF018056B4300EB8300A3891D0428
:101FB0004FF0320306D503EBC000B0FBF2F000F0A7
:101FC000070005E003EB0010B0FBF2F000F00F009B
:101FD0000843208105B030BD4FF416510160002147
:101FE0008180C18001810C2242818181704710B5BE
:101FF000028A4FF2FF031A400B884C8823438C88D7
:10200000C9880C4323431343038210BD0021018080
:1020100041808180C18070470029818902D041F4CC
:10202000005101E021F400518181704710B5C1F3E6
:10203000421301F01F040121A140012B07D0022B04
:1020400007D01430002A026805D00A4304E00C309F
:10205000F8E71030F6E78A43026010BD002A828A52
:1020600001D00A4300E08A4382827047028A22F04C
:102070000F020282028A0A4302827047828922F496
:102080000062828182890A438281704700298189A6
:1020900002D041F0020101E021F00201818170478C
:1020A000028A22F020020282028A0A4302827047D8
:1020B0000029018A02D041F4804101E021F48041ED
:1020C00001827047C1F30801818070478088C0F3A6
:1020D00008007047818941F0010181817047028BBE
:1020E000D2B20283028B42EA012101837047028B44
:1020F00002F47F420283028B0A4302837047002965
:10210000818A02D041F0200101E021F0200181828A
:1021100070470029818A02D041F0100101E021F0CE
:102120001001818270470029818A02D041F00801A4
:1021300001E021F00801818270470029818902D0E5
:1021400041F4004101E0C1F30E0181817047002993
:10215000818A02D041F4006101E021F400618182B2
:102160007047828A22F004028282828A0A43828233
:1021700070470029818A02D041F0020101E021F07C
:102180000201818270470246002012880A4200D074
:1021900001207047C9430180704770B501F01F06E8
:1021A00001250024C1F3421305FA06F2012B0FD0DA
:1021B000022B0FD0838A4FEA11210088134205FABF
:1021C00001F500EA050001D000B10124204670BDF0
:1021D0008389F0E7038AEEE70A0A01219140C943A7
:1021E0000180704700380140004400400048004032
:1021F000004C0040005000405E4900200A6842F454
:1022000080320A604FF4A0630A6800F1010012F402
:10221000003F01D19842F7D1086880033FD5564866
:10222000026842F010020260026822F003020260BB
:10223000026842F0020202604868486048684860EC
:10224000486840F480604860C86A4C4A1040C862E0
:10225000C86A4B4A1043C862086840F08060086052
:1022600008680001FCD5486820F47C104860486884
:1022700040F4E8104860086840F080700860086822
:102280008001FCD5486820F003004860486840F0B1
:10229000020048604868C0F381000228FAD1704704
:1022A000344810B5016841F0010101604168354AC8
:1022B000114041600168344A11400160016821F415
:1022C00080210160416821F4FE014160016821F034
:1022D000A05101604FF47F0181600021C162FFF7CE
:1022E0008BFF2A494FF00060086010BD70B5214B8C
:1022F0005868274A274910F00C0004D0264C0428BF
:1023000003D0082803D00A6029E00C6027E0586851
:102310005A6800F47010800C02F480320D2801D04D
:10232000801C00E00620BAB1DA6A12F4803FDA6A53
:1023300002F00F0202F101020AD0DD6ADE6AC5F383
:1023400003156D1CB4FBF5F4C6F30326B61C7443E9
:10235000B4FBF2F24243D6E7104A50430860586893
:102360000C4AC0F30310121D105C0A68C2400A60D8
:1023700070BD0000001002400020024000F0FEFF8F
:10238000440601000000FFF0FFFFF6FE08ED00E04C
:1023900000127A002C00002040787D0100093D00E9
:1023A0000648804706480047FEE7FEE7FEE7FEE7EF
:1023B000FEE7FEE7FEE7FEE7FEE7FEE7A1220008F4
:1023C0005101000880EA010210B502F0004240000D
:1023D00026D04B0023D04FEA106101EB1361C0F30C
:1023E0005600C3F3560340F4000043F40003A0FB7F
:1023F0000330A1F17F014FEA00401C0401D000F13D
:10240000010050EA134001D44000491EC3B20C063B
:1024100004EBD010401C4008802B02D003E00020C9
:1024200010BD20F00100002900DA0020104310BD8B
:1024300080EA010202F0004330B430F0004221F0A3
:10244000004015D0A0B1C0F3C755C2F3C754C2F3C2
:102450001601C0F31600651B41F4000140F40000B2
:102460007D35814201D36D1C00E04900002D02DA68
:1024700030BC002070474FF400020024814201D399
:10248000091A144352084FEA4101F7D151B1814270
:1024900002D14FF0004105E002D24FF0010101E00E
:1024A0006FF0010104EBC55030BC184400F02AB9AC
:1024B0002DE9F04D81EA030404F0004B21F00047C0
:1024C00014464FF0000A23F0004150EA070220D0E2
:1024D00054EA01021DD0C1F30A550246C1F31300AC
:1024E000C7F30A56C7F3130340F4801143F4801373
:1024F000A6EB0508101BD64608F2FD3873EB010069
:1025000002D308F1010801E092185B41B8F1000F15
:1025100003DA00200146BDE8F08D00204FF480155D
:10252000064607460EE0B2EB040C73EB010C04D335
:10253000121B064363EB01032F436D084FEA300083
:1025400092185B4150EA050CEDD152EA030012D01B
:1025500082EA040083EA0105284303D100224FF0F8
:10256000004308E0101B8B4102D20122002302E04D
:102570006FF0010253101AEB060047EB085110EB05
:102580000A0041EB0B01BDE8F04D00F0F1B89623D5
:102590000022114600F0BFB80EB5C10F80EAE0700E
:1025A0000844CA07002140F233438DE80E000A4672
:1025B0000B4600F0EAF803B000BD00F0004220F046
:1025C0000040C10DC0F3160040F400007F2901DA7D
:1025D00000207047962903DCC1F19601C84001E054
:1025E00096398840002AF4D04042704770B5C1F354
:1025F0000A5201F000450024C1F3130140F2FF33F9
:1026000041F480119A4201DA002070BD40F2334358
:102610009A42A2F2334203DC524200F063F800E037
:1026200090402C43F1D0404270BD00F0004230F0A9
:1026300000400DD0C10D01F5607142EA0151002248
:10264000C0F31600520742EAD00240071143704718
:1026500000200146704730B50B460146002020227D
:10266000012409E021FA02F59D4205D303FA02F59F
:10267000491B04FA02F52844151EA2F10102F1DCFF
:1026800030BD2DE9F05F0546002092469B46884606
:102690000646814640241BE02846414647462246DE
:1026A00000F020F852465B46801A994110D310463C
:1026B0001946224600F010FA2D1A67EB01084F4622
:1026C00022460120002100F007FA17EB00094E41D5
:1026D000201EA4F10104DFDC484631462A46434669
:1026E000BDE8F09F202A04DB203A21FA02F0002105
:1026F000704721FA02F3D040C2F120029140084312
:10270000194670470029A8BF7047401C490008BF00
:1027100020F00100704710B4B0FA80FC00FA0CF011
:1027200050EA010404BF10BC704749B1CCF1200449
:1027300021FA04F411FA0CF118BF012121430843D6
:10274000A3EB0C01CB1D0106000A002BBEBF00202D
:1027500010BC704700EBC35010440029A4BF10BC4C
:102760007047401C490008BF20F0010010BC7047B2
:1027700010B5002B08DA401C41F1000192185B41B2
:102780001A4301D120F0010010BD2DE9F04D924611
:102790009B4611B1B1FA81F202E0B0FA80F2203228
:1027A000904600F099F906460F4640EA0A0041EAD1
:1027B0000B0152465B46084303D130463946BDE81B
:1027C000F08D194652EA010015D0C8F1400250467A
:1027D000FFF788FF04460D4650465946424600F032
:1027E0007BF9084301D0012000E00020044345EAC2
:1027F000E07526432F430A984FEAD625A0EB080040
:102800000A304FEA46534FF0000245EA47554FEA77
:10281000D72402D500200146D1E7010550196141B6
:10282000DDE9084500196941BDE8F04DA0E72DE953
:10283000FE4F074681EA0300C00F0E46019021F0CB
:10284000004123F00044B81AA14105D23846314670
:1028500017461E460B46024623F00040104304D1A3
:102860003846314603B0BDE8F08F350DC5F30A0098
:10287000C3F30A510290401A0090402868DAC3F36B
:10288000130040F4801B0198924620B10023D2EB44
:10289000030A63EB0B0B00985946C0F14002504607
:1028A00000F01AF980460C4650465946009A00F04E
:1028B00022F9C0197141EF1785EA11533B4340D00B
:1028C000019A52B3009A012A11DC0022801A4FF0BB
:1028D000004361EB055103EA05538018CDE900235D
:1028E00041F5801142462346FFF74FFFBAE72E0518
:1028F0000025401B61EB0601401941F580120018CC
:1029000052412818A6F5001343EB020140EAD470A7
:10291000294318EB0808644113E064084FEA3808BB
:102920004FF0000244EAC0744FEA0553801A61EB8D
:102930000301801841F5801149084FEA30008018E2
:1029400059414246234603B0BDE8F04FFFF710BFA0
:102950000198012240000023D0EB020263EBE073F8
:1029600001984FEAE074381A66EB0401EBE783F054
:1029700000435CE781F0004159E72DE9FE4F81EA11
:10298000030421F0004504F0004423F000414FF01F
:10299000000A009450EA050302D052EA010304D170
:1029A0000020014603B0BDE8F08FC1F30A53C5F320
:1029B0000A541C44A0FB02B3C5F3130545F4801C64
:1029C000C1F3130141F480180CFB023300FB083EF5
:1029D000A4F2F334810A930A41EA8C5143EA885302
:1029E0000194A1FB03474FEA9C2505FB03734FEAC3
:1029F000982601FB06373D05260545EA1435BBEB55
:102A000006016EEB0503850E920E45EA8C1542EA2F
:102A10008812A5FB0206261E67EB00070C0D44EA90
:102A20000334A41947EB1350C1F313064FF000030E
:102A300019464FEA033343EA165343EA0403019C61
:102A4000E5FB0201A4F10C040294009C4FEA06325B
:102A5000CDE900A4FFF799FEA4E7C1F30A52C1F340
:102A6000130140F2FF3341F480119A4202DA002050
:102A70000146704740F233439A42A2F2334202DCED
:102A80005242FFF72FBE00F027B8000030B50029F2
:102A900004DB4FF00044404264EB0101002B04DBF7
:102AA0004FF00044524264EB0303994208BF904246
:102AB00030BD0000064C074D06E0E06840F0010321
:102AC00094E8070098471034AC42F6D3FDF744FB76
:102AD0000C3400082C340008202A04DB203A00FAC9
:102AE00002F1002070479140C2F1200320FA03F365
:102AF000194390407047202A06DBCB17203A41FA51
:102B000002F043EAE071704741FA02F3D040C2F1AB
:102B10002002914008431946704700000FB4054B4E
:102B200010B503A9044A029800F0C2F810BC5DF881
:102B300014FB00002F0200084000002002E008C83B
:102B4000121F08C1002AFAD170477047002001E027
:102B500001C1121F002AFBD1704700002DE9FF5F61
:102B6000DDE90210020DDDF838B001430FD10F98F6
:102B700001244AA3012807D000980F9AC0E9003128
:102B8000C0E90242BDE8FF9F6FEA0B01F4E7A2F241
:102B9000FF3244F61050424315140F9801280ED00E
:102BA000A5EB0B00401C4FF000043D4EDFF8F49005
:102BB000B0F1000AA04605DACAF1000717E0CBF130
:102BC0000000F0E7074612E0F80707D02246334638
:102BD00040464946FFF7D1FE8046894622463346A5
:102BE00010461946FFF7C9FE04460E467F10002F17
:102BF000EAD1DDE90201BAF1000F42464B4602DAA2
:102C0000FFF7BBFE01E0FFF753FC04460E4600222F
:102C1000254BFFF73BFF03D84FF0FF30014607E09D
:102C20000022224B20463146FFF701FEFFF715FF39
:102C3000102409E0002C0ADB0A220023FFF721FD03
:102C4000019B30321A55641E50EA0102F2D1641C15
:102C5000019AC4F1110314440F9A012A07D00122EA
:102C6000084301D15B450DDD00226D1C0DE00843DA
:102C700003D1A3EB0B056D1E09E000204FF0110BF3
:102C80000F908AE701DA00226D1E002A85D0009895
:102C90000F99C0E90231C0E9004573E73000000038
:102CA000000024400000F03F0000F0430000E03F3F
:102CB0002DE9FF4F95B006469A468946002521E248
:102CC000252801D01799A6E00024F9492746761C4B
:102CD0004FF0010803943278203A08FA02F00842D3
:102CE00002D00443761CF6E730782A2811D06FF022
:102CF0002F023078A0F13001092916D8039944F049
:102D0000020401EB810102EB41010844761C0390AF
:102D1000EFE759F8041B0391002903DA484244F411
:102D20000054039044F00204761C30782E2816D10B
:102D300016F8010F44F004042A280DD06FF02F017B
:102D40003078A0F13002092A09D807EB870201EB9D
:102D500042028718761CF3E759F8047B761C30781A
:102D60006C280FD006DC4C2817D068280DD06A28B4
:102D700014D104E0742810D07A280FD10DE044F467
:102D800000140AE044F4801401E044F44014717823
:102D9000814202D1761C04F58014761C96F800C09E
:102DA000BCF1660F10D01ADCBCF1580F70D00CDCEF
:102DB000BCF1000F6DD0BCF1450FF3D0BCF1460F54
:102DC000F0D0BCF1470F24D1A4E1BCF1630F40D097
:102DD000BCF1640F74D0BCF1650F1AD19AE1BCF15B
:102DE000700F6ED00CDCBCF1670FEDD0BCF1690F39
:102DF00075D0BCF16E0F12D0BCF16F0F09D1B3E0EA
:102E0000BCF1730F2FD0BCF1750F76D0BCF1780FE9
:102E100074D017996046524690476D1C70E1C4F318
:102E20000250022809D003280DD0D9F80010042838
:102E30000DD00D6009F1040962E1D9F80010EA171C
:102E4000C1E90052F6E7D9F800100D80F2E70D70E5
:102E5000F0E759F8041B8DF8001000208DF80100F0
:102E6000EB46012003E059F804BB4FF0FF30610747
:102E70004FF0000102D40FE008F101018846B94289
:102E800011DA8045F8DB1BF808100029F4D10AE0BC
:102E900060E03BE108F1010188468142FADB1BF862
:102EA00008100029F6D103985346A0EB08072146E5
:102EB0003846179A00F091FA284400EB080506E01E
:102EC0000DE049E01BF8010B524617999047B8F105
:102ED0000108F7D2534621463846179A0DE10A21D8
:102EE000C4F302524FF0000B0091022A07D059F8A8
:102EF000040BC117032A0AD00BE024E025E009F1F6
:102F0000070020F00702F2E80201914605E000B256
:102F1000C117042A01D140B2C117002906DA0A46B6
:102F20000021404261EB02012D2202E0220504D57E
:102F30002B228DF80420012203E0E20701D0202299
:102F4000F7E7904654E00A2100E010214FF0000B13
:102F500000910DE0102008E010204FF0000B44F02D
:102F600004040827009003E008204FF0000B0090B5
:102F7000C4F30252022A05D059F8040B0021032A97
:102F800008D009E009F1070020F00702F2E8020189
:102F9000914605E080B20021042A01D1C0B200218F
:102FA0004FF00008220723D5BCF1700F28D0009BFA
:102FB00083F0100353EA0B0309D150EA010206D053
:102FC00030228DF804208DF805C002229046009B27
:102FD00083F0080353EA0B030AD150EA010201D13E
:102FE000620705D530228DF804204FF001087F1EBE
:102FF000BCF1580F09D02FA20C920CAA029211E03A
:1030000040228DF804200122E0E72FA2F4E75B467E
:10301000009AFFF736FB0C9B9B5C029AA2F101021F
:103020000292137050EA0102F1D1029804A9A1EBB7
:10303000000000F1200B600702D524F4803400E08A
:1030400001275F4502DDA7EB0B0000E0002000EB4D
:103050000B01009003984144A0EB01000390E003B2
:1030600006D453462146179A039800F0B6F9054452
:10307000002706E001A85246C05D179990476D1CD5
:103080007F1C4745F6DBE0030CD553462146179AD3
:10309000039800F0A2F9054404E030205246179945
:1030A00090476D1C0099481E00900029F5DC1EE039
:1030B000092801003031323334353637383961620E
:1030C00063646566000000003031323334353637D2
:1030D00038394142434445460000000002980299B5
:1030E00052460078491C0291179990476D1CBBF11C
:1030F0000001ABF1010BF1DC50E100F05BF905449C
:1031000006F10106307800287FF4DAAD19B02846C0
:10311000BDE8F08F600700D4062709F1070020F012
:103120000701F1E80220894600F00043190001D0B0
:103130009DA109E0210501D59CA105E0E10701D091
:103140009BA101E0AFF2840120F000431391BCF198
:10315000650F11D009DCBCF1450F0DD0BCF1460F55
:1031600020D0BCF1470F3ED13EE0BCF1660F19D034
:10317000BCF1670F7CD137E00021112F01DB11205A
:1031800000E0781CCDE9000104A90CA8FFF7E6FCDB
:10319000DDE90D010C9A4FF0000B07F101081092C8
:1031A00000914CE04FF000400097CDE9018004A968
:1031B0000CA8FFF7D3FCDDE90E20DDE90C314FF060
:1031C000000B90461093009218B907F1010001EB33
:1031D0000008B7EB080003D4C0F1FF3B07F101087A
:1031E000A8EB0700019043E0012F00DA012700213E
:1031F000112F01DD112000E03846CDE9000104A9BE
:103200000CA8FFF7ABFCDDE90D010C9A00914FF023
:10321000000BB846109221070CD40099B94200DA8D
:103220008846B8F1010F05DD109AA8F10101515C43
:10323000302908D0B84202DA10F1040F06DA012171
:10324000CDE9011014E0A8F10101E9E7002803DC51
:103250008344A8EB000102E0411C414500DD8846A3
:10326000A0EB0B0000F1010001904FF00040029034
:10327000200705D40198404502DB4FF0FF30019054
:1032800000208DF84B0002980DF14B07B0F1004F74
:1032900026D002200C902B200D90029800280CDAEA
:1032A000404202902D200D9007E00A210298FFF77E
:1032B000D2F93031029007F8011D0C99481E0C908C
:1032C0000029F2DC02980028EFD1A7F101010D9846
:1032D0000870307800F0200040F0450007F8020D3B
:1032E00011A8A0EB070000F10700029013980078E6
:1032F00000B1012000EB0801019801EBE071029898
:1033000001440398A0EB0100A0F101000390E00349
:1033100006D453462146179A039800F05EF80544F8
:103320001398007820B152461799904705F101058E
:10333000E00322D553462146179A039800F04DF832
:1033400005441AE0BBF1000F07DB0098584504DD87
:103350001098179910F80B0001E017993020524689
:10336000904701986D1C401E0BF1010B019004D198
:103370002E205246179990476D1CB8F10001A8F114
:103380000108DFDC05E017F8010B5246179990475A
:103390006D1C0299481E02900029F4DC5346214618
:1033A000179A0398A9E600002D0000002B000000EA
:1033B000200000002DE9F0410446002517461E4676
:1033C000880405D406E039462020B04705F1010500
:1033D000641EF8D52846BDE8F0812DE9F041044689
:1033E000002590461E46C80301D5302700E020275F
:1033F000880405D506E041463846B04705F1010589
:10340000641EF8D52846BDE8F08100002C34000881
:1034100000000020440000003C2B0008703400082D
:1034200044000020040400004C2B000800000000B1
:1034300000000000000000000A0000005A00000028
:103440006E000204060800000000010203040102ED
:10345000030406070809000000A24A040000000057
:103460000000000001020304060708090000000034
:04000005080023A12B
:00000001FF
